:020000040800F2
:10000000402A0020FD010008D33500080B3300080A
:10001000D13500088F050008513A000800000000A3
:100020000000000000000000000000006501000862
:10003000F506000800000000A901000805360008C8
:10004000170200081702000817020008170200082C
:10005000170200081702000817020008170200081C
:10006000170200081702000817020008B10600086E
:1000700017020008170200081702000817020008FC
:1000800017020008170200081702000817020008EC
:10009000910500081702000817020008170200085F
:1000A00017020008053700081702000817020008A9
:1000B00017020008170200081702000817020008BC
:1000C00017020008170200081702000817020008AC
:1000D00017020008453A0008170200081702000836
:1000E00017020008170200081702000800000000AD
:1000F0000000000000000000000000000000000000
:1001000000000000000000001702000817020008AD
:10011000170200081702000817020008170200085B
:10012000170200081702000817020008170200084B
:10013000170200081702000817020008170200083B
:10014000170200081702000817020008170200082B
:10015000DFF80CD000F03EF900480047013C0008F1
:10016000402A0020224B19680868B0E8F00F80F39D
:100170000988BFF36F8F4FF0000080F311884EF0B5
:100180000D0E70470000000006480068006880F30C
:10019000088862B661B6BFF34F8FBFF36F8F00DF81
:1001A00000BF00BF08ED00E0EFF30980BFF36F8FE1
:1001B0000F4B1A6820E9F00F106008B54FF050009F
:1001C00080F31188BFF34F8FBFF36F8F04F002F9F4
:1001D0004FF0000080F31188BDE8084019680868F6
:1001E000B0E8F00F80F30988BFF36F8F704700BF4E
:1001F00048000020EFF30580704700000648804764
:1002000006480047FEE7FEE7FEE7FEE7FEE7FEE7FB
:10021000FEE7FEE7FEE7FEE7B13600085101000801
:100220002DE9F05F0546002092469B46884606462B
:10023000814640241BE0284641464746224600F0BE
:1002400020F853465A46C01A914110D31146184619
:10025000224600F079F82D1A67EB01084F46224636
:100260000120002100F070F817EB00094E41201E1C
:10027000A4F10104DFDC484631462A464346BDE886
:10028000F09F202A04DB203A21FA02F00021704777
:1002900021FA02F3D040C2F12002914008431946EE
:1002A000704740EA01039B0703D009E008C9121F09
:1002B00008C0042AFAD203E011F8013B00F8013B20
:1002C000521EF9D27047D2B201E000F8012B491E4C
:1002D000FBD270470022F6E710B513460A460446E3
:1002E0001946FFF7F0FF204610BD96230022114665
:1002F00000F042B820F00040C10DC0F3160040F4F9
:1003000000007F2901DA00207047962903DCC1F143
:100310009601C840704796398840704730B50B4603
:10032000014600202022012409E021FA02F59D4225
:1003300005D303FA02F5491B04FA02F52844151EF9
:10034000A2F10102F1DC30BD202A04DB203A00FAE0
:1003500002F1002070479140C2F1200320FA03F31C
:100360001943904070470029A8BF7047401C4900BE
:1003700008BF20F00100704710B4B0FA80FC00FA0A
:100380000CF050EA010404BF10BC704749B1CCF135
:10039000200421FA04F411FA0CF118BF01212143C1
:1003A0000843A3EB0C01CB1D4FEA00614FEA10207C
:1003B00042BF002010BC704700EBC350104400291E
:1003C000A4BF10BC7047401C490008BF20F00100CA
:1003D00010BC7047064C074D06E0E06840F0010392
:1003E00094E8070098471034AC42F6D3FFF7B4FE08
:1003F0000C4800082C48000870B504462068816845
:1004000011F0010F24D0816821F00101816001F019
:1004100093FC05462068806810F0010F18D001F0A9
:100420008BFC401B02280ED92068806810F0010F59
:1004300009D0A06A40F01000A062E06A40F001001C
:10044000E062012070BD2068806810F0010FE6D1E5
:10045000002070BD10B50246506A816A11F0500F3D
:1004600005D0006A016BBDE8104010460847816A5C
:1004700041F400718162016889684FF4602232EAB8
:1004800001010DD1017B59B9816A21F4807181622A
:10049000816A11F4805F03D1816A41F001018162B8
:1004A00000F07CFA10BD10B5406A816A41F040014D
:1004B0008162C16A41F00401C16200F071FA10BDAD
:1004C00010B5406A00F06BFA10BD0000F8B50446A4
:1004D000002600962068816811F0010F28D18168FC
:1004E00041F001018160194819490068B0FBF1F041
:1004F0000090009828B10098401E009000980028B5
:10050000F9D101F019FC05462068806810F0010F50
:100510000ED101F011FC401B022804D9206880682C
:1005200010F0010F06D02068806810F0010FF0D0A5
:100530000020F8BDA06A40F01000A062E06A40F020
:100540000100E06284F824600120F8BD380000203A
:1005500040420F0070B5002423464E1E08E000BF45
:1005600000EB43056D8820F813505B1C2C449BB2B4
:10057000B342F5DB00EB410020F8022C1019B0FB70
:10058000F1F0FFF7B2FEFFF7B5FE80B270BDFEE7F7
:10059000014800F056BD000038040020114810B595
:1005A000114A0021C0E900120422C0E902210822F8
:1005B00002610E48031F017011214170FF218170FB
:1005C000C170017141718171C1710649024601F129
:1005D000340000F069FB002803D0BDE8104000F0B3
:1005E0008AB810BD04040020D3D2C6192800002008
:1005F00000B58BB000210122CDE9061205910091D2
:1006000001910291039104910E21CDE908216946DF
:1006100000F0CCFB084800F06EFF10B107A003F01B
:1006200019FA0221044800F02DFB002802D007A08F
:1006300003F010FA0BB000BD38040020BFAAC6F4C6
:1006400043414ECAA7B0DC0D0A000000BFAAC6F4A1
:10065000B9D2C6F0D6D0B6CED4CAD0EDCAA7B0DCD7
:100660000D0A00004FF47A7003F0F8FA002201211D
:100670000A4801F059FB0A4D0A4C64212A880A48AD
:10068000FFF768FF20806A8864210848FFF762FF4F
:100690006080142003F0E2FAEFE70000001401404C
:1006A0000000002004000020AC00002074010020A5
:1006B000014801F037B80000C003002010B490F8E2
:1006C00040C0012404FA0CFCC46BC4F804C0D0F888
:1006D00000C0CCF804304368102B05D00368996043
:1006E0000068C26010BC704703689A600068C1600F
:1006F00010BC7047704770470C4D0D4C4FF4FA76A4
:100700000C4801F056FC0121284601F005FB218828
:1007100009A003F09FF961880AA003F09BF9FFF795
:100720003DFF304603F09AFAEAE70000001401406A
:1007300004000020B4040020414443313A202564E1
:100740000D0A0000414443323A2025640D0A00009E
:10075000044C207808B1608800E0642003F07EFA41
:10076000F7E700000C000020F8B5044600260096CC
:1007700094F82400012809D0012084F824002046A0
:10078000FFF73AFE0746380002D06DE00220F8BDC0
:10079000A06A20F4885040F00200A062022001F01C
:1007A000DBFC33490968B1FBF0F040000090009891
:1007B00028B10098401E009000980028F9D12046EA
:1007C000FFF784FE2068816841F00801816001F034
:1007D000B3FA05462068806810F0080F18D001F0C1
:1007E000ABFA401B0A280ED92068806810F0080F69
:1007F00009D0A06A20F0020040F01000A06284F846
:1008000024600120F8BD2068806810F0080FE6D150
:100810002068816841F00401816001F08DFA05468D
:100820002068806810F0040F18D001F085FA401B92
:100830000A280ED92068806810F0040F09D0A06A39
:1008400020F0020040F01000A06284F82460012033
:10085000F8BD2068806810F0040FE6D1A06A20F08F
:10086000020040F00100A06284F824603846F8BD20
:100870003800002078B44FF0000C0024009490F869
:100880002420012A14D0012280F824204A681F2540
:10089000072A10D203685E6B521E02EB820295405B
:1008A00026EA05050E6806FA02F22A435A631FE09B
:1008B00078BC022070470D2A0DD203681E6BD21F30
:1008C00002EB8202954026EA05050E6806FA02F25E
:1008D0002A431A630CE00368DE6A0D3A02EB8202D7
:1008E000954026EA05050E6806FA02F22A43DA6206
:1008F0000A6807250A2A0DD30368DE680A3A02EB64
:100900004202954026EA05058E6806FA02F22A435D
:10091000DA600BE003681E6902EB4202954026EAAA
:1009200005058E6806FA02F22A431A610A68102A3F
:1009300001D0112A0BD10268A2F18043B3F59233A2
:100940000AD0816A41F0200181624FF0010C80F8E9
:10095000244078BC60467047936813F4000FF6D1CA
:10096000936843F40003936009681029EFD10949A3
:10097000094A0968B1FBF2F101EB810149000091DC
:1009800000990029E3D00099491E0091009900299F
:10099000F9D1DCE73800002040420F007047704773
:1009A000704700002DE9F041044600270025002C87
:1009B00003D0A06A002618B108E00120BDE8F0814C
:1009C000E66284F82460204600F07CF82046FFF7B9
:1009D00013FD0146A06A10F0100F00D139B1A06AD2
:1009E00040F01000A06201210846BDE8F081A06A35
:1009F00020F4885040F00200A062E2696068237B26
:100A0000104347EA43020243A068B0F5807F08D054
:100A1000012806D0002094F814C0BCF1010F03D0C7
:100A20000BE04FF48070F6E7F3B1A36A43F02003C4
:100A3000A362E36A43F00103E3622368D3F804C0CE
:100A40002CF4694C4CEA0000586020688368DFF899
:100A50006CC003EA0C0313438360A068B0F5807F89
:100A600009D0012807D009E0A3695B1E40EA4330A2
:100A700040F40060E1E7208A401E05052068C36A53
:100A800023F470032B43C362206880680C4B18402A
:100A9000904207D1E662A06A20F0020040F0010017
:100AA000A062A1E7A06A20F0020040F01000A0625E
:100AB000E06A40F00100E062012195E7FDF7E1FF07
:100AC000FE0E1FFF70B586B0002605460096019603
:100AD0000296039600681A4988422ED119498869FE
:100AE00040F400708861886900F40070049088699F
:100AF00040F0040088618869694600F004000490B1
:100B0000032000900190104801F008F8104C0F48A5
:100B1000C4E900068020C4E9026040002061800032
:100B200060612020A0610002E061204600F064FFC7
:100B300008B1FFF7E0FD2C62656206B070BD0000F1
:100B4000002401400010024000080140080002405B
:100B5000C00300202DE9F0470446884691462068EE
:100B6000434F444EA0F1804ABAF5923A01D0B842C0
:100B700007D1306810F4702F03D001252846BDE856
:100B8000F08794F8240001280BD0012084F8240079
:100B90002046FFF79BFC054600212DB184F8241068
:100BA000ECE70220BDE8F087A06A20F0010020F405
:100BB000606040F48070A0622068B8421AD1326848
:100BC00012F4702F16D0A26A42F48012A26230682A
:100BD00010F4806F05D0A06A20F4005040F48050DB
:100BE000A062A06A10F4805F13D0E06A20F00600D3
:100BF000E0620FE0A26A22F48012A262406810F460
:100C0000806FEED0A06A20F4005040F48050A062C3
:100C1000E7E7E16284F82410216A17488862216AB4
:100C20001648C862216A1648086321686FF00200FE
:100C300008602068816841F48071816020684B46BB
:100C400000F14C014246206A00F02AFF20688168CA
:100C50004FF4602232EA010104D0816841F480112E
:100C600081608BE7816841F4A001816086E7000024
:100C7000002801400424014055040008C104000874
:100C8000A704000890F82020012A07D0022A05D0E6
:100C9000416A41F480214162012070470068426945
:100CA000114341610020704770B490F82040D0F8A3
:100CB00000C0DCF808C0012C08D0022C06D0416A24
:100CC00041F48021416270BC012070470CF08064C7
:100CD0000CF000652C4302D11CF0805F5FD0CCF398
:100CE000016CBCF1020F06D9416A41F40001416276
:100CF00070BC01207047012404FA0CF41C608B685E
:100D00004FF4C0749BB1CD6804EB0C162B434D68B7
:100D100043EAC5030568AB514FF4C273066803EBA1
:100D20000C130D69F550097D012909D00DE00D88DE
:100D3000CB6804EB0C1643EA45530568AB51EBE76F
:100D40000168CD5845F48075CD501179D379557926
:100D500041EA036193791B0443EA052319434FF4E5
:100D6000C675036805EB0C1559511178D37841EA23
:100D70000361937852781B0443EA022211434FF433
:100D8000C473026803EB0C13D150016804EB0C1020
:100D90000A5842F001020A5070BC00207047416AB4
:100DA00041F40011416270BC0120704790F820208E
:100DB000012A07D0022A05D0416A41F4802141620C
:100DC000012070474248D0F8002242F00102C0F8EA
:100DD0000022D0F8002222F47C52C0F80022D0F881
:100DE00000224B6A42EA0322C0F800220A7D012356
:100DF00002F01F0203FA02F2D0F81C329343C0F84B
:100E00001C32CB69D3B9D0F80C329343C0F80C3202
:100E1000B1F80CC04B686CF31F43D1F814C000EB61
:100E2000CC0CCCF84032B1F808C00B686CF31F430F
:100E3000D1F814C000EBCC0CCCF84432CB69012BB8
:100E40001AD1D0F80C321343C0F80C32B1F800C0FC
:100E50004B686CF31F43D1F814C000EBCC0CCCF8FA
:100E60004032B1F808C0CB686CF31F43D1F814C00E
:100E700000EBCC0CCCF844328B697BB1D0F8043257
:100E80001343C0F804320B6973B1D0F81432134322
:100E9000C0F81432096A01290CD010E0D0F80432ED
:100EA0009343C0F80432EEE7D0F814329343C0F80D
:100EB0001432EFE7D0F81C121143C0F81C12D0F81E
:100EC000001221F00101C0F800120020704700005C
:100ED00000640040704710B490F820C0BCF1010FCE
:100EE00009D0BCF1020F06D0416A41F48021416271
:100EF00010BC0120704739B1D0F800C0DCF810C038
:100F00001CF0030F7DD006E0D0F800C0DCF80CC068
:100F10001CF0030F7BD04FF4D87C04680CEB011C51
:100F200054F80C4004F004049460002C7DD0046854
:100F300054F80C40E4085460046854F80CC00CF0F9
:100F4000020CC2F80CC04FF4DA7C04680CEB011CF4
:100F500054F80C4004F00F041461046854F80C4079
:100F6000C4F307249461046854F80CC04FEA1C4C85
:100F7000C2F814C04FF4DC72D0F800C002EB0112CA
:100F80005CF802C083F800C0D0F800C05CF802C072
:100F90004FEA1C2C83F801C0D0F800C05CF802C0F6
:100FA0004FEA1C4C83F802C0D0F800C05CF8022065
:100FB000120EDA704FF4DE72D0F800C002EB0112AC
:100FC0005CF802C083F804C0D0F800C05CF802C02E
:100FD0004FEA1C2C83F805C0D0F800C05CF802C0B2
:100FE0004FEA1C4C83F806C0D0F800C05CF8022021
:100FF000120EDA71F9B10068016941F02001016156
:1010000002E00BE003E010E010BC00207047416AF2
:1010100041F40011416210BC01207047416A41F463
:101020000011416210BC01207047046854F80C4064
:10103000640D146080E70068C16841F02001C16060
:10104000DEE72DE9F05F0546002428684669D0F800
:1010500004908768D0F80CA0D0F810B0D0F81880B1
:1010600016F0010F54D017F0010F17D00121816045
:1010700017F0020F03D0284600F070FA0EE017F0C8
:10108000040F02D04FF4006408E017F0080F02D0FC
:101090004FF4805402E0284600F05FFA17F4807F96
:1010A00019D029684FF48070886017F4007F03D04E
:1010B000284600F055FA0EE017F4806F02D044F491
:1010C000005408E017F4006F02D044F4804402E0BA
:1010D000284600F044FA17F4803F19D029684FF4ED
:1010E0008030886017F4003F03D0284600F03AFAB9
:1010F0000EE017F4802F02D044F4004408E017F407
:10110000002F02D044F4803402E0284600F029FA8F
:1011100016F0080F07D01AF0100F04D044F4007432
:1011200029681020C86016F0040F4FF0080707D098
:101130001AF0080F04D02868C760284600F08EF91E
:1011400016F0020F07D02868C06810F0030F02D015
:10115000284600F085F916F0400F07D01BF0100F5D
:1011600004D044F4806429681020086116F0200F30
:1011700007D01BF0080F04D028680761284600F04C
:10118000B7F916F0100F07D02868006910F0030FA8
:1011900002D0284600F0ADF916F4003F08D019F04F
:1011A000100F05D0296810204860284600F0A2F9E9
:1011B00016F4803F07D019F0080F04D02868476064
:1011C000284600F0D0F916F4004F4AD019F0040F69
:1011D00044D016F4807F04D018F0010F01D044F001
:1011E000010416F4007F04D018F0020F01D044F07F
:1011F000020416F4806F04D018F0040F01D044F0FC
:10120000040416F4006F29D018F0700F26D008F0EF
:101210007000402815D006DC102809D020280AD0FC
:10122000302816D10AE050280ED0602811D10EE0E7
:1012300044F008040DE044F010040AE044F02004F7
:1012400007E044F0400404E044F0800401E044F48A
:1012500080742868816921F0700181612968042007
:101260004860002C05D0686A204368622846FFF772
:1012700031FEBDE8F09F70B50446002C03D094F811
:10128000200010B104E0012070BD204600F0A8F855
:101290002068016841F00101016000F04DFD054644
:1012A000206840684FF0050610F0010F11D100F0E2
:1012B00043FD401B0A2807D9606A40F40030606291
:1012C00084F82060012070BD2068406810F0010F94
:1012D000EDD02068016821F00201016000F02CFDD2
:1012E00005462068406810F0020F11D000F024FD80
:1012F000401B0A2807D9606A40F40030606284F815
:101300002060012070BD2068406810F0020FEDD110
:10131000207E01283FD02068016821F08001016013
:10132000607E01283DD02068016821F04001016005
:10133000A07E01283BD02068016821F020010160D7
:10134000E07E012839D02068016841F01001016079
:10135000207F012837D02068016821F00801016052
:10136000607F012835D02068016821F00401016008
:10137000E168A06862690843216911430843616814
:10138000491E08432168C86100206062012084F87A
:101390002000002070BD2068016841F080010160DC
:1013A000BEE72068016841F040010160C0E72068A5
:1013B000016841F020010160C2E72068016821F066
:1013C00010010160C4E72068016841F00801016074
:1013D000C6E72068016841F004010160C8E7000029
:1013E00010B586B00021009101910291039100682F
:1013F000174988422AD11748C16941F00071C1617B
:10140000C16901F000710491816941F004018161B9
:101410008069114C00F0040004904FF400600090CB
:101420006946204600F07AFBA0140090022001904B
:10143000032003906946204600F070FB002205213E
:10144000142000F043FE142000F032FE06B010BD60
:101450000064004000100240000801407047000096
:1014600010B5194B194A0021FFF735FD18B1BDE839
:101470001040FFF740B9154A13489168042911D16B
:10148000134B5168C91815D0124BD9420AD10178B3
:10149000114B01F001011970104B41881980104B5C
:1014A0008188198000210B464354491C0829FBDB25
:1014B000536010BD0B4B017819700B4B41781970BC
:1014C0000A4B81781970EDE7300000201C040020E1
:1014D0002C2D3EE60100F8FF0C000020200000202B
:1014E0000E00002008000020090000200A00002053
:1014F00070477047704770B5044694F82000012883
:1015000005D0606A40F400206062012070BD0220B6
:1015100084F820002068016821F00101016000F0DA
:101520000BFC05462068406810F0010F12D000F057
:1015300003FC401B0A2808D9606A40F4003060624E
:10154000052084F82000012070BD2068406810F05C
:10155000010FECD10020606270BD7047704770478A
:10156000704770477047704790F821100022022999
:1015700005D00421816380F8202001207047016894
:101580000B6823F00E030B6001680B6823F0010366
:101590000B6090F84030D0F83CC0012101FA03F311
:1015A000CCF8043080F8211080F8202010467047D5
:1015B0002DE9F05F002490F82110022903D00421C6
:1015C0008163012490E001680A6822F00E020A603B
:1015D00001680A6822F001020A60454A0168454B29
:1015E000DFF814C1454D464E464FDFF81C81DFF849
:1015F0001C91DFF81CA1DFF81CB1DFF81CE191425F
:1016000032D9994201D101212BE0614501D110214C
:1016100027E0A94202D14FF4807122E0B14202D109
:101620004FF480511DE0B94202D14FF4803118E0EF
:10163000414502D14FF4801113E0494501D1012108
:101640000FE0514501D110210BE0594502D14FF473
:10165000807106E0714502D14FF4805101E04FF4F2
:1016600080312E4A116036E0994201D1012130E0EB
:10167000614501D110212CE0A94202D14FF48071C3
:1016800027E0B14202D14FF4805122E0B94202D1A9
:101690004FF480311DE0414502D14FF4801118E034
:1016A000914202D14FF0807113E0494501D10121EF
:1016B0000FE0514501D110210BE0594502D14FF403
:1016C000807106E0714502D14FF4805101E04FF482
:1016D0008031134A5160012180F82110002180F8E7
:1016E0002010416B01B188472046BDE8F09F000003
:1016F00080000240080002401C000240300002400E
:1017000044000240580002406C00024008040240BD
:101710001C0402403004024044040240040402401D
:10172000000002402DE9F05FC16B0A6801680B6898
:10173000D0F840B04FF0040C0CFA0BFC1CEA020F7E
:10174000DFF880C2A04CA14DA14EA24FDFF88882E5
:10175000DFF88892DFF888A270D013F0040F7ED0F3
:101760000A6812F0200F03D10A6822F004020A600E
:101770009C4A0168914233D9614501D104212CE092
:10178000A14201D1402128E0A94202D14FF4806159
:1017900023E0B14202D14FF480411EE0B94202D1B0
:1017A0004FF4802119E0414502D14FF4800114E04B
:1017B000494501D1042110E0514501D140210CE0FF
:1017C000894A914201D1091507E0884A914202D124
:1017D0004FF4804101E04FF48021854A116038E0E8
:1017E000614501D1042132E0A14201D140212EE026
:1017F000A94202D14FF4806129E0B14202D14FF4F5
:10180000804124E0B94202D14FF480211FE04145DC
:1018100002D14FF480011AE0914202D14FF0806171
:1018200015E0494501D1042111E0514501D1402184
:101830000DE06D4A914202D1091508E00FE06B4AB4
:10184000914202D14FF4804101E04FF48021694A76
:101850005160C16A002970D0BDE8F05F08474FF0C1
:10186000020E0EFA0BFE1EEA020F67D013F0020FF3
:1018700064D00A6812F0200F06D10A6822F00A022A
:101880000A60012180F82110564A0168914233D93B
:10189000614501D102212CE0A14201D1202128E0A3
:1018A000A94202D14FF4007123E0B14202D14FF4BA
:1018B00000511EE0B94202D14FF4003119E0414518
:1018C00002D14FF4001114E0494501D1022110E08A
:1018D000514501D120210CE0434A914201D14915E3
:1018E00007E0424A914202D14FF4005101E04FF427
:1018F00000313F4A116039E0614501D1022133E0F6
:10190000A14201D120212FE0A94202D14FF4007160
:101910002AE0B14202D14FF4005125E0B94202D190
:101920004FF4003120E0414502D14FF400111BE09B
:10193000914204D14FF0007116E041E01FE04945AB
:1019400001D1022110E0514501D120210CE0264AAD
:10195000914201D1491507E0244A914202D14FF446
:10196000005101E04FF40031224A5160002180F81B
:101970002010816A002923D0BDE8F05F08474FF0AE
:10198000080C0CFA0BFC1CEA020F19D013F0080F1C
:1019900016D00A6822F00E020A6090F84020C36B4D
:1019A000012101FA02F25A60816380F821100021BE
:1019B00080F82010016B002902D0BDE8F05F0847D5
:1019C000BDE8F09F080002401C00024030000240C9
:1019D00044000240580002406C00024008040240EB
:1019E0001C040240800002403004024044040240D3
:1019F000040402400000024010B400280ED0224B24
:101A00000168224A99420CD2214B0B44A2FB0332BB
:101A10001209920002641F4AC2630BE010BC01204D
:101A200070471D4B0B44A2FB033212099200026463
:101A30001A4AC263022280F821200A686FF30D124D
:101A4000D0F808C04368046943EA0C03D0F80CC01E
:101A50004CEA040C43EA0C03D0F814C043EA0C032C
:101A6000D0F818C043EA0C03D0F81CC043EA0C03BA
:101A70001A430A6000218163012280F8212080F846
:101A8000201010BC0020704708040240CDCCCCCC04
:101A9000F8FFFDBF00000240F8FBFDBF000402405C
:101AA00070B50446002594F8200001280DD00120CF
:101AB00084F8200094F821C00020BCF1010F06D06A
:101AC00084F820000225284670BD022070BD4FF02A
:101AD000020C84F821C0A0632068D0F800C02CF06C
:101AE000010CC0F800C02046FEF7E8FDE06A28B10E
:101AF0002068016841F00E01016009E0206801687A
:101B000021F0040101602068016841F00A010160D0
:101B10002068016841F001010160D4E72DE9F84F28
:101B20004FF0000C00230A68002A7DD0DFF8DC812A
:101B30000F2708F1040909F1040A0AF1040B012234
:101B400002FA0CF60A683240B2426ED1DFF8C0E108
:101B50004C68A4EB0E0574452BD00DDC032C34D05F
:101B600005DC34B3012C19D0022C2FD11BE0112C31
:101B700016D0122C2AD119E0B5F5881F19D006DC31
:101B8000B5F5803F15D0B5F5801F1FD111E0B5F533
:101B9000001F0ED0B5F5041F18D10AE0CB6815E080
:101BA000CB681B1D12E0CB6808330FE0CB680C3309
:101BB0000CE08B6823B1012B04D00823466105E0BB
:101BC000042303E00823066100E00023B2F5807FD0
:101BD00001D2054601E000F1040502D24FEA8C046F
:101BE00003E0ACF108044FEA84042E6807FA04FE0F
:101BF00026EA0E0603FA04F446EA04042C604C6854
:101C000014F0805F79D0434CA56945F00105A561CA
:101C1000A46904F0010400942CF0030404F180444E
:101C200004F58034A66801E06EE066E04FEA8C754A
:101C30004FEA157507FA05FE26EA0E0EA0F180465A
:101C4000B6F584361ED0A0F18046B6F586361BD098
:101C5000A0F18046B6F5883618D0A0F18046B6F5DA
:101C60008A3615D0042606FA05F545EA0E05A56064
:101C70004C6814F4803F0DD0D8F800401443C8F8E5
:101C800000400CE00026EEE70126ECE70226EAE73A
:101C90000326E8E7D8F800409443C8F800404C68B1
:101CA00014F4003F05D0D9F800401443C9F80040AF
:101CB00004E0D9F800409443C9F800404C6814F49B
:101CC000801F05D0DAF800401443CAF8004004E051
:101CD000DAF800409443CAF800404C6814F4001F3E
:101CE00005D0DBF800402243CBF8002005E0DBF80C
:101CF000004024EA0202CBF800200CF1010C0A6833
:101D000032FA0CF27FF41BAFBDE8F88F00040140FB
:101D10000000111000100240C26821EA02031140C5
:101D200043EA014101617047002A01D00161704717
:101D30000904016170470000014880687047000095
:101D40003C00002070B50446002C04D094F83D00FF
:101D5000002510B106E0012070BD84F83C502046FB
:101D600000F0C6F8242084F83D002068016821F0C6
:101D7000010101602068016841F4004101602068B0
:101D8000016821F40041016000F09AFC544B616845
:101D9000994203D85349884203D304E05249884208
:101DA00001D2012070BD5149B0FBF1F12268D2F897
:101DB00004C02CF03F0C4CEA010CC2F804C062686D
:101DC0009A4201D84A1C07E04FF4967251434FF4EF
:101DD0007A72B1FBF2F14A1C2168D1F820C02CF0D4
:101DE0003F0C42EA0C020A626168994210D849002D
:101DF000401EB0FBF1F2521CC2F30B02042A01D2C6
:101E0000042026E0B0FBF1F0401CC0F30B0020E002
:101E1000A268002A50D001EBC10303EB0113A0F12B
:101E2000010CBCFBF3F35B1C43F480431B051B0D4F
:101E30004AD0002A4AD001EBC10202EB0111401E38
:101E4000B0FBF1F0401CC0F30B0040F4804040F4C4
:101E500000402168CA6922F0FF0222F44F42104379
:101E6000C861216AE06901432068026822F0C0026B
:101E700011430160E168206901432068826822F013
:101E8000FF0222F4034211438160A16960690143AA
:101E90002068C26822F0FF021143C1602068016817
:101EA00041F0010101602564202084F83D00256394
:101EB00084F83E50002070BD01EB4103A0F1010CFD
:101EC000BCFBF3F35B1CB1E70120C2E701EB41016E
:101ED000401EB0FBF1F0401CC0F30B00B7E7000060
:101EE000A086010080841E0000093D0040420F00D2
:101EF00010B586B000210091019102910391006814
:101F00000F4988421AD10F4CA06940F00800A06127
:101F1000A069694600F008000490C02000901220DB
:101F20000190032003900848FFF7F8FDE06940F4B2
:101F30000010E061E06900F40010049006B010BDEC
:101F40000054004000100240000C014070B50446EF
:101F5000002C21D021684CF6CC400860216845F265
:101F6000555008602168606848602168A0688860F2
:101F7000FFF7E2FE05462068C06810F0030F12D09C
:101F8000FFF7DAFE401B272808D92068C06810F048
:101F9000030F03D0032070BD012070BD2068C0680E
:101FA00010F0030FECD121684AF6AA200860002047
:101FB00070BD00684AF6AA21016000207047000049
:101FC0000248816802781144816070473C0000201B
:101FD00010B50748016841F010010160032000F0CE
:101FE000A9F80F2000F006F800F03EF8002010BD20
:101FF0000020024000B5014687B00022192000F001
:1020000065F8192000F054F81348816941F4006123
:102010008161806905A900F400600690684600F0BF
:102020002BFB00F05DFB0D490D4AB0FBF1F10D48B3
:10203000491E0260416040F2E7320021C0E90321FD
:10204000816000F058FE10B1012007B000BD0548C6
:1020500000F080FEF9E700000010024040420F004F
:10206000002C0140040500200F4808B5816941F0AB
:1020700001018161816901F001010091C16941F0B3
:102080008051C161C069002200F0805000900F2192
:10209000901E00F01BF80548416821F0E06141F016
:1020A0000071416008BD00000010024000000140C6
:1020B00000280ADB00F01F01012202FA01F14009A9
:1020C000800000F1E020C0F80011704710B4184BF8
:1020D0001B68C3F30223C3F1070CBCF1040F01D941
:1020E0004FF0040C1C1D072C01D2002300E0DB1E66
:1020F000012404FA0CFCACF1010C0CEA010199403A
:1021000004FA03F35B1E1A401143002806DB00F1BA
:10211000E020090180F8001410BC704700F00F00A7
:1021200000F1E020090180F8141D10BC7047000088
:102130000CED00E000F00700064A11684FF6FF03BF
:10214000194041EA002040F0FD7040F080601060CE
:10215000704700000CED00E010B588B0014662A0A9
:10216000D0F800C083684268C068CDF810C00693FC
:102170000592079060A0D0F808C043680268C06864
:10218000CDF808C001930092039000205E4B5F4C95
:1021900004294ED00EDC01297CD0022908D100F0A0
:1021A0009FFA6168C1F38131491C4900B0FBF1F02D
:1021B00008B010BD082957D01029F9D162682168EC
:1021C00011F0807FF4D004A8C2F38341415C12F483
:1021D000803F21D0E06A00F00F001DF80000E26AA5
:1021E00012F4803F0FD0E26AC2F3031202F1010C35
:1021F000E26AC2F30322921CB3FBFCF35A43B2FB24
:10220000F0F0484302E0B3FBF0F048439DF81D2096
:102210008A4203D1400801E03D484843616811F417
:10222000800FC5D13B494000A1FB0010400808B019
:1022300010BDE16A11F4003F11D0216811F0805FF8
:10224000F5D0E06AC0F30310401CE16AC1F303312A
:10225000891CB3FBF0F04843400008B010BD08B043
:10226000BDE8104000F04CBAE16A11F4802F12D0A2
:10227000216811F0805FF0D0E06AC0F30310401CC9
:10228000E16AC1F30331891CB3FBF0F0484308B0A5
:10229000400010BD04E008B0BDE8104000F030BAC6
:1022A000216A01F44072B2F5807F06D111F0020F6D
:1022B00003D008B04FF4004010BDB2F5007F07D145
:1022C000626A12F0020F03D049F6404008B010BD18
:1022D0004FF4407232EA0101F8D1216811F4003F55
:1022E000F4D008B00C4810BD00000405060708092A
:1022F00000000000000D00000102030405060708AD
:10230000090A0B0C0D0E0F1040787D0100100240E1
:1023100000093D00ABAAAAAAF0FA02002DE9F84F85
:10232000044600262078704D10F0010F4FF001098F
:1023300067D00027E86910F0805F08D1E86940F0B5
:102340008050E861E86900F0805000900127DFF8D4
:102350009CA1DAF8000010F4807F1BD1DAF80000AD
:1023600040F48070CAF80000FFF7E6FC8046DAF817
:10237000000010F4807F0DD1FFF7DEFCA0EB080019
:10238000642802D90320BDE8F88FDAF8000010F4C1
:10239000807FF1D0286A00F4407030B3A18801F446
:1023A0004071814221D0286A20F440705049C1F820
:1023B000009000220A60286210F0010F15D0FFF78C
:1023C000BBFC8046286A10F0020F0ED141F2883A19
:1023D000FFF7B2FCA0EB0800504502D90320BDE88E
:1023E000F88F286A10F0020FF2D0286A616820F492
:1023F000407008432862012F03D1E86920F0805023
:10240000E861207810F0020F05D06868A16820F418
:10241000404008436860207810F0040F05D0E86A57
:10242000E16820F400300843E862207810F0080FDB
:1024300005D0E86A216920F480200843E862E86A50
:1024400010F4003F03D1E86A10F4802F00D0012679
:10245000012E3BD1286810F0805F08D0E86A6169DE
:1024600000F47040884231D00120BDE8F88F286820
:1024700010F0806F08D0E86AA16900F0F00088428F
:1024800002D00120BDE8F88FE86AA16920F0F000D1
:102490000843E862E86A616920F470400843E86232
:1024A0001448C0F87090FFF747FC0646286810F003
:1024B000005F0BD1FFF740FC801B642802D903208A
:1024C000BDE8F88F286810F0005FF3D0207810F096
:1024D000100F05D06868E16920F480000843686047
:1024E0000020BDE8F88F000000100240007000409E
:1024F00040044242000042422DE9F04704460D46A6
:10250000002C17D0DFF85C81D8F8000000F007003D
:10251000A84212D2D8F8000020F007002843C8F8DB
:102520000000D8F8000000F00700A84205D0012004
:10253000BDE8F0870120BDE8F08720684A4E10F022
:10254000020F14D010F0040F03D0706840F4E06064
:102550007060207810F0080F03D0706840F460506D
:102560007060706820F0F001A06808437060207807
:1025700010F0010F3AD06068012806D002280BD075
:10258000316811F0020F27D00AE0316811F4003FE2
:1025900006D10120BDE8F087316811F0007F18D026
:1025A000716821F0030108437060FFF7C5FB07461F
:1025B0007068616800F00C00B0EB810F16D041F23A
:1025C0008839FFF7B9FBC01B484508D90320BDE88F
:1025D000F0870120BDE8F0870120BDE8F087706832
:1025E000616800F00C00B0EB810FEAD1D8F8000070
:1025F00000F00700A8420FD9D8F8000020F007002B
:102600002843C8F80000D8F8000000F00700A842EE
:1026100002D00120BDE8F087207810F0040F05D02B
:102620007068E16820F4E06008437060207810F082
:10263000080F06D07068216920F4605040EAC1009C
:10264000706000F05DF87168084AC1F30311515CD5
:10265000C8400749086007480068FFF7CBFC002026
:10266000BDE8F0870020024000100240C04700088B
:1026700038000020400000200F2202600B4A5368FF
:1026800003F003034360536803F0F003836053686F
:1026900003F4E063C360526802F46052D20802613E
:1026A0000348006800F0070008607047001002400F
:1026B00000200240014800687047000038000020F8
:1026C00000B5FFF7F7FF04494968044AC1F3022146
:1026D000515CC84000BD000000100240D047000817
:1026E00000B5FFF7E7FF04494968044AC1F3C22176
:1026F000515CC84000BD000000100240D0470008F7
:10270000F0B589B02BA0836842680168C068069361
:102710000592049107902BA0036842688168C06805
:1027200000930192029103902A4B586800F00C012B
:10273000042904D0082905D0274809B0F0BD27484E
:1027400009B0F0BD04A9C0F383428C5C10F4803F53
:102750002BD0D86A00F00F001DF80000D96A11F4E0
:10276000803F17D0D96AC1F303114A1CD96AC1F35B
:102770000321891CA2FB0023A1FB0416DFF85CC027
:102780000025A1FB0C0706FB0C7C01FB05C1FDF736
:1027900047FD03E011496143B1FBF0F09DF81D10C6
:1027A000A142CDD109B04008F0BD0D4809B0604349
:1027B000F0BD000000000405060708090000000045
:1027C000000D00000102030405060708090A0B0CAE
:1027D0000D0E0F100010024000127A0040787D01AB
:1027E00000093D002DE9F84F0446002C0FD0207859
:1027F000FE4D10F0010F6CD0686800F00C0004284A
:102800000CD0686800F00C00082803D010E001200C
:10281000BDE8F88F686810F4803F09D0286810F48C
:10282000003F56D0A068002853D10120BDE8F88FA2
:10283000A068B0F5803F15D0C8B1B0F5A02F1FD06B
:10284000286820F480302860286820F480202860E0
:10285000A06858B3FFF770FA0646286810F4003FE6
:1028600017D036E0286840F480302860F0E7286808
:1028700020F480302860286820F480202860E7E772
:10288000286840F480202860286840F48030286060
:10289000DEE7FFF751FA801B642802D90320BDE868
:1028A000F88F286810F4003FF3D012E0FFF744FAE5
:1028B0000646286810F4003F0BD0FFF73DFA801B56
:1028C000642802D90320BDE8F88F286810F4003F7F
:1028D000F3D12078C64F10F0020F4FF001094FF0EE
:1028E000000854D0686810F00C0F14D0686800F02D
:1028F0000C00082803D1686810F4803F0BD0606991
:1029000078B3C7F80090FFF717FA0646286810F06A
:10291000020F12D01DE0286810F0020F05D0606988
:10292000012802D00120BDE8F88F2868A16920F0B5
:10293000F80040EAC100286029E0FFF7FDF9801B9C
:10294000022802D90320BDE8F88F286810F0020F92
:10295000F3D02868A16920F0F80040EAC10028609F
:1029600015E0FFE7C7F80080FFF7E6F9064628689C
:1029700010F0020F0BD0FFF7DFF9801B022802D9FD
:102980000320BDE8F88F286810F0020FF3D12078FB
:1029900010F0080F30D09748E169C1B1C0F800903D
:1029A000FFF7CAF90646686A10F0020F0BD1FFF76D
:1029B000C3F9801B022802D90320BDE8F88F686A9A
:1029C00010F0020FF3D0012000F004FE14E0C0F874
:1029D0000080FFF7B1F90646686A10F0020F0BD0CD
:1029E000FFF7AAF9801B022802D90320BDE8F88F5F
:1029F000686A10F0020FF3D1207810F0040F6FD046
:102A00000026E86910F0805F08D1E86940F0805046
:102A1000E861E86900F0805000900126DFF8D8B145
:102A2000DBF8000010F4807F1BD1DBF8000040F4DD
:102A30008070CBF80000FFF77FF98246DBF80000DA
:102A400010F4807F0DD1FFF777F9A0EB0A0064281E
:102A500002D90320BDE8F88FDBF8000010F4807F76
:102A6000F1D02069012816D0D0B1052821D0286ADC
:102A700020F001002862286A20F004002862206902
:102A800041F2883B68B3FFF757F98246286A10F095
:102A9000020F17D03AE0286A40F001002862EEE702
:102AA000286A20F001002862286A20F004002862C9
:102AB000E5E7286A40F004002862286A40F0010037
:102AC0002862DCE7FFF738F9A0EB0A00584502D985
:102AD0000320BDE8F88F286A10F0020FF2D015E04D
:102AE0001AE0FFE7FFF728F98246286A10F0020F84
:102AF0000CD0FFF721F9A0EB0A00584502D90320BA
:102B0000BDE8F88F286A10F0020FF2D1012E03D130
:102B1000E86920F08050E861E06A98B3696811F4D0
:102B2000803F0BD0696801F00C01082906D1E96AE1
:102B300011F4803F02D00120BDE8F88F022814D0A4
:102B4000E86A20F48030E862C7F86880FFF7F4F89C
:102B50000646286810F0006F59D0FFF7EDF8801B8B
:102B6000642850D90320BDE8F88F286810F0805FF2
:102B700009D0E86A616B00F0F000884203D00120C0
:102B8000BDE8F88F43E0C7F86880FFF7D5F8064640
:102B9000286810F0006F0BD0FFF7CEF8801B642878
:102BA00002D90320BDE8F88F286810F0006FF3D138
:102BB000E86A616B20F0F0000843E862E86A216B84
:102BC00020F470600843E862C7F86890FFF7B4F833
:102BD0000646286810F0006F19D1FFF7ADF8801B8A
:102BE00064280BD90320BDE8F88F000000100240D4
:102BF000000042428004424200700040286810F009
:102C0000006FEAD003E0286810F0006FA5D1206AB9
:102C1000E8B3696801F00C01082957D002280FD0E9
:102C2000C7F86080FFF788F80446286810F0007F36
:102C30005DD0FFF781F8001B022842D90320D2E7BC
:102C4000C7F86080FFF778F80646286810F0007F24
:102C50000AD0FFF771F8801B022801D90320C2E7D0
:102C6000286810F0007FF4D1606AB0F5803F09D188
:102C7000E86A61680843E862E86AE16820F00F00EA
:102C80000843E862A16A606A0843696800E02EE0D0
:102C900021F4741108436860C7F86090FFF74CF89E
:102CA0000446286810F0007F21D1FFF745F8001B8B
:102CB000022801D9032096E7286810F0007FF4D09D
:102CC00015E0286810F0007FB3D110E001280CD087
:102CD0006868626A00F48031914204D1A16A00F40C
:102CE0007010884203D001207DE701207BE700209F
:102CF00079E77047704710B50446002C03D094F86C
:102D00003D0010B107E0012010BD002084F83C0018
:102D1000204600F01EF8022084F83D00211D2068A6
:102D200000F0F6FC012084F8460084F83E0084F8A8
:102D30003F0084F8400084F8410084F8420084F8A1
:102D4000430084F8440084F8450084F83D000020E6
:102D500010BD704790F83D10012901D00120704747
:102D6000022180F83D100168CA6842F00102CA6081
:102D70000068A0F18041B1F5963117D0B0F1804FD5
:102D800014D0A0F18041B1F580610FD0A0F1804155
:102D9000B1F500610AD0A0F18041B1F5406105D0E4
:102DA000016841F00101016000207047816801F075
:102DB00007010629F8D0016841F001010160F3E73D
:102DC000704770B50446206801694FF0000511F0A6
:102DD000020F17D0C16811F0020F13D0E91E016174
:102DE000012020772068806910F0030F03D020466F
:102DF000FFF7E6FF05E0204600F09DF8204600F0D2
:102E00009BF825772068016911F0040F18D0C1687C
:102E100011F0040F14D06FF004010161022020773B
:102E20002068806910F4407F03D02046FFF7C8FF78
:102E300005E0204600F07FF8204600F07DF8257779
:102E40002068016911F0080F18D0C16811F0080F4F
:102E500014D06FF008010161042020772068C06958
:102E600010F0030F03D02046FFF7AAFF05E020462D
:102E700000F061F8204600F05FF8257720680169CE
:102E800011F0100F18D0C16811F0100F14D06FF0AE
:102E900010010161082020772068C06910F4407F8C
:102EA00003D02046FFF78CFF05E0204600F043F8F2
:102EB000204600F041F825772068016911F0010FE4
:102EC00009D0C16811F0010F05D06FF00101016157
:102ED000204600F033F82068016911F0800F09D016
:102EE000C16811F0800F05D06FF0800101612046AC
:102EF000FFF7FFFE2068016911F0400F09D0C1689B
:102F000011F0400F05D06FF040010161204600F044
:102F10001FF82068016911F0200F0BD0C16811F073
:102F2000200F07D06FF0200101612046BDE87040FE
:102F3000FFF7E0BE70BD70477047000000680349AE
:102F4000884201D1FFF73CB870470000002C0140D7
:102F50007047704770470000F8B504462268106853
:102F6000D168536900F00F0CBCF1000F0AD110F0CA
:102F7000200F07D011F0200F04D02046BDE8F84004
:102F800000F031BC0025BCF1000F6DD003F0010C46
:102F900001F490765CEA060666D010F0010F06D0C8
:102FA00011F4807F03D0226C42F00102226410F001
:102FB000040F06D013F0010F03D0226C42F002027E
:102FC000226410F0020F06D013F0010F03D0226C20
:102FD00042F00402226410F0080F08D001F0200231
:102FE00052EA0C0203D0226C42F008022264226CE6
:102FF000002A2FD010F0200F05D011F0200F02D0A2
:10300000204600F0F0FB20684069C0F38010216C7E
:1030100011F0080F00D110B3204600F0BFFB20686C
:10302000416911F0400F16D0416921F04001416122
:10303000A06B60B147494163A06BFEF7B9FA002865
:1030400008D0A06B416B01B0BDE8F04008472046B6
:10305000FFF780FFF8BD2046FFF77CFFF8BD204654
:10306000FFF778FF2564F8BD236B012B5BD110F0CF
:10307000100F58D011F0100F55D010685068009004
:1030800050694FF0200310F0400F2ED0A16B08685C
:10309000406880B20028E6D0B4F82CC08445E2D95C
:1030A000E0858869202818D0D06820F48070D0602E
:1030B0002068416921F0010141612068416921F0E6
:1030C0004001416184F83E3025632068C16821F0E9
:1030D0001001C160A06BFEF747FAA08DE18D401A88
:1030E00081B22046FFF735FFF8BDA08DE18D401A73
:1030F00081B2E08D0028F7D00029F5D0D06820F407
:103100009070D0602068426922F00102426184F828
:103110003E3025632068C26822F01002C26020465B
:10312000FFF717FFF8BD10F0800F07D011F0800FE8
:1031300004D02046BDE8F84000F018BC10F0400F65
:10314000F0D011F0400FEDD02046BDE8F84000F07F
:103150003DBB00008D37000870B50446002C04D03C
:1031600094F83D00002510B106E0012070BD84F800
:103170003C50204600F022F8242084F83D002068CE
:10318000C16821F40051C160204600F08BFB20682B
:10319000016921F4904101612068416921F02A010F
:1031A00041612068C16841F40051C160256420205C
:1031B00084F83D0084F83E00002070BD70B586B0F4
:1031C00000240094019402940394006818498842F2
:1031D0002BD11848816941F480418161816901F4F2
:1031E00080410491816941F0040181618069022577
:1031F00000F0040004904FF40070CDE900050320B6
:103200000D4E039069463046FEF788FC68028DE853
:10321000310069463046FEF781FC00220521252059
:10322000FEF754FF2520FEF743FF06B070BD0000F7
:1032300000380140001002400008014070472DE9AD
:10324000F84304460E4615461F4694F83D002028D4
:1032500002D00220BDE8F883C6B1BDB194F83C00AD
:10326000012816D0012084F83C004FF00009C4F872
:103270004090212084F83D00FEF75EFD8046A58445
:10328000E584A068B0F5805F06D007E00120BDE8C6
:10329000F8830220BDE8F883206980B13546002616
:1032A00084F83C90E08CB8B143460022802120464F
:1032B000009700F08AFB20B10320BDE8F8830025C9
:1032C000EEE7A5B12168287848606D1CE08C401EAF
:1032D000E084E08C0028E7D14346002240212046CC
:1032E000009700F072FB48B10320BDE8F8833088F6
:1032F0002168C0F308004860B61CE7E7202084F886
:103300003D000020BDE8F8837047FEE7FEB50024CD
:103310001648009401941449029401608915816053
:10332000012505730475022606614FF4602144608F
:10333000C161FDF737FB08B1FDF7DDF90520009409
:10334000CDE9015069460948FDF794FA08B1FDF747
:10335000D2F9CDE9005669460448FDF78BFA0028FA
:1033600001D0FDF7C8F9FEBD002401409003002004
:10337000104810B50E4901600921416000214FF449
:10338000C0228160C0E903124FF4E002426101767D
:10339000417681760122C27601774177FDF76BFF96
:1033A000002803D0BDE81040FDF7A5B910BD00000E
:1033B0000064004038040020094808B5416941F024
:1033C000010141614069002200F0010000900521E7
:1033D0000B20FEF77BFEBDE808400B20FEF768BE21
:1033E0000010024010B59CB01C2216496846FCF73C
:1033F00058FF0021684600F03EFC134C11491C2286
:1034000060601C3107A8FCF74CFF002107A800F002
:1034100032FC0C49A0601C2238310EA8FCF741FF99
:1034200000210EA800F027FC0649E0601C22543160
:1034300015A8FCF736FF002115A800F01CFC206140
:103440001CB010BD504700080C0000202DE9F04FC3
:1034500085B000243148009401940294039481695A
:1034600041F040018161816901F04001049181696D
:1034700041F004018161816901F0040104918169D5
:1034800041F020018161816901F02001049181698D
:1034900041F0080181618069DFF8849000F0080044
:1034A00004900022F0214846FEF73EFCDFF874A0AD
:1034B0004FF47F47002239465046FEF735FCDFF8CF
:1034C00068B043F60178002241465846FEF72CFCCE
:1034D0003F20CDE90004694650460294FEF71EFBEA
:1034E000F0200124022503268DE871006946484634
:1034F000FEF714FB01AA009782E870006946504667
:10350000FEF70CFB01AACDF8008082E87000694646
:103510005846FEF703FB05B0BDE8F08F00100240EF
:103520000008014000180140001401400D4810B58A
:103530000B4901600C49416000214FF480428160D9
:10354000C0E9031241618161C1610162FEF7FAFBCA
:10355000002803D0BDE81040FDF7CDB810BD000035
:103560000054004060040020A0860100094810B506
:1035700007490160042141604FF4FA718160FEF750
:10358000E5FC002803D0BDE81040FDF7B4B810BD3D
:1035900000300040B40400200C4810B50A49016016
:1035A0004FF4E1314160002181600C22C160C0E92B
:1035B00004128161C161FFF7CFFD002803D0BDE88F
:1035C0001040FDF798B810BD00380140C00400203D
:1035D000FEE7704781B007494FF4FA520968B1FB22
:1035E000F2F14843009000BF0098411E0091FAD2CA
:1035F00001B07047380000204FF47A74204600F084
:103600002DFBFBE710B5502080F31188BFF34F8FDF
:10361000BFF36F8F00F0CEFF18B104494FF0805018
:103620000860002080F3118810BD000004ED00E068
:1036300030B59BB038216846FCF74CFE14210EA82B
:10364000FCF748FE202113A8FCF744FE0920009057
:1036500001254FF4803004210795CDE902010224B1
:10366000CDE90840019005954FF4E010CDE90A043A
:103670004FF4C0600C9040200D906846FFF7B2F800
:103680000F20CDE90E0400206102CDE91001129057
:1036900002210EA8FEF730FFA0031590139413A883
:1036A000FEF73CFE014805671BB030BD00004242FA
:1036B0001048016841F00101016041680E4A114063
:1036C000416001680D4A11400160016821F48021C8
:1036D0000160416821F4FE014160016821F0A051C0
:1036E00001604FF47F0181600021C1620449C00381
:1036F00008607047001002400000FFF0FFFFF6FE78
:1037000008ED00E00148FFF75CBB00000405002065
:1037100070B40268DFF864C0194B1A4C1A4D60454A
:1037200008D0B0F1804F05D0984203D0A04201D01C
:10373000A84203D122F070024E683243604508D09F
:10374000B0F1804F05D0984203D0A04201D0A842EA
:1037500003D122F44072CB681A434B6922F08002F5
:103760001A4302608A68C2620A688262604501D1B7
:10377000096901630121416170BC7047002C01405F
:103780000004004000080040000C004010B5406AF2
:103790000021C185C184FFF7DDFB10BD0168CA6847
:1037A00022F49072CA6001684A6922F001024A61FB
:1037B000016B012904D10168CA6822F01002CA60B5
:1037C000202180F83E1000210163704710B5016888
:1037D000CA6822F04002CA60202180F83D10FFF73D
:1037E00093FD002010BD08B590F83E10222901D0AD
:1037F000022008BD8268B2F5805F01D1016929B15C
:10380000816AB2F5805F1DD052B10BE0816A026817
:103810005268C2F308020A80816A891C816209E049
:1038200002697AB10268526802F07F020A70816A06
:10383000491C8162C18D491E0904090CC18505D04E
:10384000002008BD026852680A70F0E70168CA6883
:1038500022F02002CA600168CA6822F48072CA603D
:1038600001684A6922F001024A61202180F83E1075
:10387000016B012903D0FFF7E1FC002008BD002106
:1038800001630168CA6822F01002CA6001680A6810
:1038900012F0100F02D00A6849680091818DFFF77D
:1038A00058FBEAE770B5044620680169E26821F434
:1038B0004051114301612169A068084361690143D6
:1038C0002068C26822F4037222F4A0521143C1603E
:1038D00020684169A26921F4407111434161206867
:1038E000A0F18041B1F59C313AD0FEF7E9FE00EB42
:1038F000C00101EB001061681B4A8900B0FBF1F3C5
:10390000A2FB0353B0FBF1FC5B096FF018056B439E
:103910000CEB83034FF0320C0CEB0313A2FB0353AD
:103920005B0903F0F005B0FBF1F3A2FB03635B0955
:1039300005EB0313B0FBF1F5B0FBF1F0A2FB0010B7
:1039400040096FF01801484305EB80000CEB0010B4
:10395000A2FB00102168C0F343101844886070BDBA
:10396000FEF7BEFEC3E700001F85EB5190F83D1047
:10397000212901D0022070478168B1F5805F01D113
:10398000016961B1016A4A1C0262026809785160EA
:10399000C18C491E0904090CC1840AD013E0016AD4
:1039A00002680988C1F308015160016A891C01623B
:1039B000EEE70168CA6822F08002CA600068C16848
:1039C00041F04001C160002070472DE9F0410446FC
:1039D000069D884617461E462068006838EA0000A3
:1039E00020D00020B84227D1B5F1FF3F1CD025B12F
:1039F000FEF7A2F9801BA84216D92068C16821F4FD
:103A0000D071C1602068416921F00101416120202D
:103A100084F83D0084F83E00002084F83C00032038
:103A2000BDE8F0810120DDE72068006838EA000089
:103A300005D00020B842D7D00020BDE8F081012099
:103A4000F8E700000148FFF787BA0000C004002033
:103A5000FEE700000FB4054B10B503A9044A029815
:103A600000F018F810BC5DF814FB0000E93B0008FA
:103A7000A800002002E008C8121F08C1002AFAD1DD
:103A800070477047002001E001C1121F002AFBD1DE
:103A9000704700002DE9FF4F89B09B460446002582
:103AA00006E025280BD05A460B999047641C6D1CE4
:103AB00020780028F5D10DB02846BDE8F08F00270A
:103AC000B8460122474900E0074314F8013F203B74
:103AD00002FA03F00842F7D120782E2819D114F801
:103AE000010F47F004072A280ED06FF02F0220782C
:103AF000A0F1300109290CD808EB880102EB410143
:103B000000EB0108641CF2E70A98641C50F8048B6F
:103B10000A9020780028CED0642808D0692806D0E2
:103B200075281ED05A460B9990476D1C58E00A998B
:103B30004FF00A0901C90A91002802DA40422D21FA
:103B400002E0390504D52B218DF82010012103E076
:103B5000F90704D02021F7E78A4608AE0DE00021DE
:103B6000FAE70A994FF00A0901C90A91F7E74946AD
:103B7000FCF7D4FB303106F8011D0028F7D1ADEB7E
:103B8000060000F12009780701D44FF00108C8456C
:103B900002DDA8EB090000E000208046002706E0D7
:103BA00008A85A46C05D0B9990476D1C7F1C57456D
:103BB000F6DB04E030205A460B9990476D1CB8F1B3
:103BC0000001A8F10108F5DC05E016F8010B5A46E2
:103BD0000B9990476D1CB9F10001A9F10109F4DCC2
:103BE000641C65E70928010013B54FF6FF73012235
:103BF00069460248FFF723FB00981CBDC004002063
:103C0000FEF7E6F9FFF714FDFFF720FCFFF7B0FB26
:103C1000FFF7C2FCFFF7D0FBFFF778FBFFF7A6FC2E
:103C2000FFF784FC0748FCF7E3FC0748FCF79CFD22
:103C3000022206490448FCF78DFFFFF7D3FB00F092
:103C400015F8FEE738040020900300200000002053
:103C50000021842800D0C11C0846704710B50028F8
:103C600000D1012000F042FB002010BD10B500F093
:103C700065FB002010BD30B585B004460D46616976
:103C8000B4F90800002910D0A16971B1FFF7E0FF75
:103C90006269A1690192029100902B462269216814
:103CA000606800F057FC049010E0FFF7D1FF04A912
:103CB00001910090208A2B4682B22168606800F052
:103CC00013FC012802D005B0002030BD049805B0D7
:103CD00030BD00002DE9F04104460F46194E7569CC
:103CE0003068001D00F038FA48B93068012190F8BA
:103CF0002C0001FA00F0B16921EA0000B061B4F1D2
:103D0000FF3F07D137B13068BDE8F041011D0E48D3
:103D100000F069BA2C4430684460AC4206D2306886
:103D2000011DB068BDE8F04100F042BA3068011DE5
:103D3000706800F03DFA306B844200D23463BDE815
:103D4000F0810000480000202806002070B50446DD
:103D500000F056FA1C4D2869401C2861286810B1F3
:103D6000E86938B10CE02C602869012808D100F01E
:103D7000E7F805E02868E16AC06A884200D82C604C
:103D8000E86A401CE862E06A0121AA6981401143A7
:103D9000A9610E4900EB800001EB8000211D00F0BD
:103DA00022FA00F04DFAE86900280CD02868E16A90
:103DB000C06A884207D206494FF080500860BFF3BE
:103DC0004F8FBFF36F8F70BD480000204C0500205F
:103DD00004ED00E070B50D4CE068002815D00C4EE5
:103DE00000F00EFAF068C568281D00F0B5F92069EA
:103DF000401E2061E068401EE06000F021FA284685
:103E000000F008F8E0680028EAD170BD4800002002
:103E10001406002010B5044694F8511000290BD068
:103E2000012911D0022914D0502080F31188BFF34A
:103E30004F8FBFF36F8FFEE7206B00F017FA20461D
:103E4000BDE8104000F012BA2046BDE8104000F076
:103E50000DBA10BD4FF40051104810F0070F06D0F6
:103E6000C01D20F007000D49411AC1F500510C4A50
:103E70001060002353600144083921F00701103A13
:103E800011604B600B600B1A4360016040689060EA
:103E900050604FF00040D060704700003C060020AA
:103EA00094000020074E4FF08054074DFFF792FF1B
:103EB00030680128FAD92C60BFF34F8FBFF36F8FA2
:103EC000F4E700004C05002004ED00E02DE9F04788
:103ED0008146099E089D0A9C9A46521E206B00EB63
:103EE000820020F007080027002023180A5C83F8CE
:103EF00034200A5C12B1401C1028F6D384F84370B9
:103F0000072D00D30625E5626564A764201D00F037
:103F10004CF904F1180000F048F92461C5F10700DC
:103F2000A0616462E76484F8507052464946404696
:103F300000F000F92060002E00D03460BDE8F0876A
:103F400070B500240F4D04EB840005EB800000F0F9
:103F500021F9641C072CF6D30B4800F01BF90B4821
:103F600000F018F90A4800F015F90A4800F012F9B3
:103F7000094800F00FF90948034941601431816094
:103F800070BD00004C050020D8050020EC05002085
:103F9000000600201406002028060020480000200B
:103FA00010B4144900E011460A688242FBD34B6802
:103FB00003EB010C844503D140681844486008466F
:103FC0000C68D0F804C00CEB0003A3420CD10A4BE0
:103FD0001B689A4206D05268624442600A681268BE
:103FE000026002E0036000E00260814200D00860ED
:103FF00010BC7047940000208400002007494868E6
:104000000068002805D04868C068C0684068086338
:1040100070474FF0FF3008637047000048000020F1
:104020000A484068B0F1FF3F07D0502080F3118864
:10403000BFF34F8FBFF36F8FFEE7502080F31188DF
:10404000BFF34F8FBFF36F8FFEE700009C0000208F
:104050002DE9F0410546002600F0B4F9334F3868E9
:1040600008B9FFF7F7FEF86805424ED19DB1083553
:1040700015F0070F0FD005F00700C0F10800054448
:1040800015F0070F07D0502080F31188BFF34F8F32
:10409000BFF36F8FFEE7002D37D07868854234D8A4
:1040A00023490846046801E0214604466068A842A6
:1040B00002D220680028F7D13868844225D00868E9
:1040C00000F10806206808606068411B10290FD9BC
:1040D000601910F0070F07D0502080F31188BFF34C
:1040E0004F8FBFF36F8FFEE741606560FFF758FFAA
:1040F00061687868401A7860BA68904200D2B86007
:10410000F868084360600020206000F0BBFA16F0F9
:10411000070F07D0502080F31188BFF34F8FBFF3F4
:104120006F8FFEE73046BDE8F0810000840000207C
:1041300094000020001F4FF080730360001F21F0E7
:1041400001010160001F034901601438026020383A
:1041500070470000214000080169436882689A6046
:10416000836842685A604A68824201D182684A6024
:10417000002202610868401E08600868704700005D
:10418000034B036003F15400086040201060704747
:104190003C02002000F1080141604FF0FF328260D4
:1041A000C160016100210160704700210161704719
:1041B00010B4D1F800C0BCF1FF3F02D000F10802FA
:1041C00002E0026904E01A4653681C686445FAD9A3
:1041D00053684B6099608A60516008610168491CAE
:1041E000016010BC704742684A6093688B609368B6
:1041F0005960916008610168491C016070470000C6
:10420000502080F31188BFF34F8FBFF36F8F0A499F
:104210004868401C486001280CD10848006810F02C
:10422000FF0F07D0502080F31188BFF34F8FBFF3EB
:104230006F8FFEE7704700009C00002004ED00E057
:1042400009494868002806D0401E4860002801D16E
:1042500080F311887047502080F31188BFF34F8F8F
:10426000BFF36F8FFEE700009C00002070B50028B0
:1042700027D0A0F10804134D6068E968084207D10F
:10428000502080F31188BFF34F8FBFF36F8FFEE78D
:1042900022683AB1502080F31188BFF34F8FBFF3EB
:1042A0006F8FFEE78843606000F08CF86068696893
:1042B000084468602046FFF773FEBDE8704000F0D8
:1042C000E1B970BD840000204FF0E02000210161C1
:1042D000816105494FF47A720968B1FBF2F1491E18
:1042E00041610721016170473800002010B5024686
:1042F0000020002A12D00F48806B38B1502080F384
:104300001188BFF34F8FBFF36F8FFEE700F05AF8AD
:1043100000211046FFF7DEFC00F0B4F9002807D1B9
:1043200005494FF080500860BFF34F8FBFF36F8F88
:1043300010BD00004800002004ED00E010B586B07C
:1043400000240594049403AA04A905A8FFF718FF04
:1043500005980499019102900023009415A1174833
:10436000039A00F0F7F81649486308B1012000E00D
:10437000002001280AD0B0F1FF3F19D1502080F36E
:104380001188BFF34F8FBFF36F8FFEE7502080F38C
:104390001188BFF34F8FBFF36F8F4FF0FF3008636B
:1043A0000120C8614C6106B0BDE8104000F042B881
:1043B00006B010BD49444C4500000000A53E000871
:1043C000480000200248816B491C8163704700004F
:1043D00048000020154A906B002802D0012050624E
:1043E0007047002050629069B0FA80F0C0F11F0061
:1043F0000F4900EB800051F8203073B101EB8000D1
:1044000041684968416000F10803994201D1496857
:1044100041604068C06810607047502080F3118888
:10442000BFF34F8FBFF36F8FFEE7000048000020FF
:104430004C05002000B583B0284908780290FF2081
:104440000870087801909DF804009DF8042000F0A1
:10445000F000904207D0502080F31188BFF34F8FB7
:10446000BFF36F8FFEE79DF804001D4B00F0500076
:104470001870072098609DF8040010F0800F0BD092
:104480009868401E98609DF80400400001909DF8D7
:10449000040010F0800FF3D19868032807D0502053
:1044A00080F31188BFF34F8FBFF36F8FFEE74FF498
:1044B00040709860029808700A48016841F47001E1
:1044C0000160016841F070410160FFF7FDFE0020CE
:1044D0005860FBF759FE03B0002000BD00E400E087
:1044E0009C00002020ED00E02DE9F04F85B08146D2
:1044F0000F9F0E9E8A4690469B464FEA8800FFF724
:10450000A7FD054628000AD05420FFF7A1FD044668
:104510000CB1256304E02846FFF7A8FE00E0002464
:104520009CB1002084F8510003905B4642465146FE
:104530000197009602944846FFF7C8FC2046FFF713
:1045400005FC05B00120BDE8F08F05B04FF0FF304D
:10455000BDE8F08F70B586B00646DDF828C00C9C2B
:104560000B98002816D0ECB1542504952063022046
:1045700084F85100002005AD0390CDF800C00195EE
:1045800002943046FFF7A2FC2046FFF7DFFB0598B8
:1045900006B070BD502080F31188BFF34F8FBFF37A
:1045A0006F8FFEE7502080F31188BFF34F8FBFF36A
:1045B0006F8FFEE72DE9F0470026304FB86B0028DB
:1045C00008D0386A401C3862786A00B1012630464B
:1045D000BDE8F0877869451C7D619DB97868006801
:1045E00038B1502080F31188BFF34F8FBFF36F8F26
:1045F000FEE77868B9687960B860B86A401CB8624C
:10460000FFF7FCFC386BDFF8788085420FD34FF062
:1046100001097868006838B17868C068C468606863
:1046200085420ED2386302E04FF0FF3038633868BD
:10463000C06A00EB800058F820000128C4D9012688
:10464000C2E7201DFFF788FDA06A18B104F1180029
:10465000FFF782FDE16ABA6909FA01F01043B86117
:1046600001EB810008EB8000211DFFF7BCFDE06A33
:104670003968C96A8842CCD30126CAE748000020BD
:104680004C0500202DE9F0470024A0462D4DA86BD5
:10469000002807D0FFF7B4FDA86B401EA863A86BE5
:1046A00040B149E0502080F31188BFF34F8FBFF332
:1046B0006F8FFEE7286900283ED0234F3868012617
:1046C00000B3A7F1B409F868C46804F11800FFF753
:1046D00043FD201DFFF740FDE06AAA6906FA00F1DC
:1046E0001143A96100EB800009EB8000211DFFF759
:1046F0007AFDE06A2968C96A884200D36E62386828
:104700000028E0D10CB1FFF779FC2C6A44B1FFF727
:1047100051FF00B16E62641E002CF8D100202862A7
:10472000686A48B14FF0010808494FF080500860AE
:10473000BFF34F8FBFF36F8FFFF782FD4046BDE899
:10474000F0870000480000200006002004ED00E093
:1047500000480008F93500080000000000000000D3
:10476000400000000000000000000000D8470008E2
:104770006506000801000000000000008000000045
:104780000000000000000000F0470008F9060008E3
:1047900000000000000000004000000000000000D9
:1047A00000000000E4470008510700080200000074
:1047B00000000000400000000000000000000000B9
:1047C00000000000000000000102030406070809C1
:1047D00000000000010203045461736B5F43414E0B
:1047E000000000005461736B5F4750494F000000A8
:1047F0005461736B5F46656564446F670000000039
:1048000064656661756C745461736B002C480008B4
:1048100000000020AC000000743A0008D8480008EE
:10482000AC00002094290000843A00080000000039
:104830000000000000000000000000000000000078
:104840000000000000000000000000000000000068
:104850000000000000000000000000000000000058
:10486000000000000024F40001000000100000001F
:104870000000000000000000000000000000000038
:104880000000000000000000000000000000000028
:104890000000000000000000000000000000000018
:1048A0000000000000000000000000000000000008
:1048B00000000000000000000000000000000000F8
:1048C000000000000000000000000000AAAAAAAA40
:0848D0000000000000000000E0
:04000005080001519D
:00000001FF
