:020000040800F2
:10000000D8270020FD01000873200008991E000871
:10001000712000082D0300081524000800000000CE
:100020000000000000000000000000006501000862
:10003000E905000800000000A9010008812000086F
:10004000170200081702000817020008170200082C
:10005000170200081702000817020008170200081C
:10006000170200081702000817020008170200080C
:1000700017020008170200081702000817020008FC
:1000800017020008170200081702000817020008EC
:1000900031030008170200081702000817020008C1
:1000A000170200086D210008170200081702000857
:1000B00017020008170200081702000817020008BC
:1000C00017020008170200081702000817020008AC
:1000D0001702000809240008170200081702000888
:1000E00017020008170200081702000800000000AD
:1000F0000000000000000000000000000000000000
:1001000000000000000000001702000817020008AD
:10011000170200081702000817020008170200085B
:10012000170200081702000817020008170200084B
:10013000170200081702000817020008170200083B
:10014000170200081702000817020008170200082B
:10015000DFF80CD000F0D8F800480047A1240008D0
:10016000D8270020224B19680868B0E8F00F80F308
:100170000988BFF36F8F4FF0000080F311884EF0B5
:100180000D0E70470000000006480068006880F30C
:10019000088862B661B6BFF34F8FBFF36F8F00DF81
:1001A00000BF00BF08ED00E0EFF30980BFF36F8FE1
:1001B0000F4B1A6820E9F00F106008B54FF050009F
:1001C00080F31188BFF34F8FBFF36F8F02F002FDF2
:1001D0004FF0000080F31188BDE8084019680868F6
:1001E000B0E8F00F80F30988BFF36F8F704700BF4E
:1001F0003C000020EFF30580704700000648804770
:1002000006480047FEE7FEE7FEE7FEE7FEE7FEE7FB
:10021000FEE7FEE7FEE7FEE71921000851010008AE
:100220002DE9F05F0546002092469B46884606462B
:10023000814640241BE0284641464746224600F0BE
:1002400020F853465A46C01A914110D31146184619
:10025000224600F04AF82D1A67EB01084F46224665
:100260000120002100F041F817EB00094E41201E4B
:10027000A4F10104DFDC484631462A464346BDE886
:10028000F09F202A04DB203A21FA02F00021704777
:1002900021FA02F3D040C2F12002914008431946EE
:1002A000704740EA01039B0703D009E008C9121F09
:1002B00008C0042AFAD203E011F8013B00F8013B20
:1002C000521EF9D27047D2B201E000F8012B491E4C
:1002D000FBD270470022F6E710B513460A460446E3
:1002E0001946FFF7F0FF204610BD202A04DB203A14
:1002F00000FA02F1002070479140C2F1200320FA79
:1003000003F3194390407047064C074D06E0E06840
:1003100040F0010394E8070098471034AC42F6D34C
:10032000FFF71AFFD02F0008F02F0008FEE70000AB
:10033000014800F098BA00002802002000B58BB0F8
:1003400000210122CDE9061205910091019102914F
:10035000039104910E21CDE90821694600F088F946
:10036000084800F097FC10B107A002F055F80221F0
:10037000044800F06BF9002802D007A002F04CF806
:100380000BB000BD28020020BFAAC6F443414ECAEC
:10039000A7B0DC0D0A000000BFAAC6F4B9D2C6F0AF
:1003A000D6D0B6CED4CAD0EDCAA7B0DC0D0A0000B4
:1003B000642002F091F84FF480456E00864C6F1077
:1003C0004FF480584FF400694FF4806A4FF4007B7B
:1003D0002078C00701D0012200E0002210217F48D0
:1003E00000F03EFE2078800701D5012200E00022C7
:1003F00020217A4800F034FE2078400701D5012200
:1004000000E000224021754800F02AFE2078000715
:1004100001D5012200E000228021704800F020FE7A
:100420002078C00601D5012200E000224FF480713F
:100430006B4800F015FE2078800601D5012200E00F
:1004400000225946664800F00BFE2078400601D590
:10045000012200E000225146614800F001FE2078B0
:10046000000601D5012200E0002249465C4800F068
:10047000F7FD6078C00701D0012200E0002241466C
:10048000574800F0EDFD6078800701D5012200E0BB
:1004900000223946524800F0E3FD6078400701D55C
:1004A000012200E0002229464D4800F0D9FD607885
:1004B000000701D5012200E000223146484800F043
:1004C000CFFD6078C00601D5012200E0002208219E
:1004D000424800F0C5FD6078800601D5012200E0A9
:1004E000002239463F4800F0BBFD6078400601D548
:1004F000012200E0002241463A4800F0B1FD607858
:10050000000601D5012200E000224946354800F0EE
:10051000A7FDA078C00701D0012200E000225146CB
:10052000304800F09DFDA078800701D5012200E051
:10053000002259462B4800F093FDA078400701D5D2
:10054000012200E000224FF48071264800F088FD6F
:10055000A078000701D5012200E0002204211F48F5
:1005600000F07EFDA078C00601D5012200E0002247
:1005700020211B4800F074FDA078800601D50122DF
:1005800000E000221021164800F06AFDA078400625
:1005900001D5012200E000220821114800F060FD91
:1005A000A078000601D5012200E0002204210C48B9
:1005B00000F056FDE07850B9A078400701D501223F
:1005C00000E000224FF48071064800F049FD32201F
:1005D00001F082FFFCE6000000000020000801405E
:1005E000001801400014014070477047064C4FF45A
:1005F000FA75064800F06DFD0121204600F028FD47
:10060000284601F069FFF4E7001401405002002081
:100610000C4C0D4D4FF48076E07870B100223146DD
:10062000284600F01DFDE08801F056FF012231460A
:10063000284600F015FDA08800E0642001F04CFF82
:10064000EAE70000000000200014014090F820209C
:10065000012A07D0022A05D0416A41F48021416273
:1006600001207047006842690A43426100207047D8
:1006700010B590F82020012A07D0022A05D0416A3F
:1006800041F480214162012010BD3B48D0F8002296
:1006900042F00102C0F80022D0F8002222F47C527D
:1006A000C0F80022D0F800224B6A42EA0322C0F8C8
:1006B00000220A7D02F01F0301229A40D0F81C326A
:1006C0009343C0F81C32CB69B3B9D0F80C329343D2
:1006D000C0F80C328C894B6864F31F434C6900EB03
:1006E000C404C4F840320C890B6864F31F434C699E
:1006F00000EBC404C4F84432CB69012B16D1D0F806
:100700000C321343C0F80C320C884B6864F31F435F
:100710004C6900EBC404C4F840320C89CB6864F324
:100720001F434C6900EBC404C4F844328B69002BAE
:10073000D0F804320ED01343C0F804320B69002BFA
:10074000D0F8143208D01343C0F81432096A0129D2
:1007500004D008E09343EFE79343F5E7D0F81C1289
:100760001143C0F81C12D0F8001221F00101C0F8AA
:100770000012002010BD000000640040704730B53A
:1007800090F82040012C05D0022C03D0416A41F49E
:1007900080215DE00468002955D02469A40754D065
:1007A0004FF4D874056804EB01142D5915F00405B5
:1007B000956005682D594ED0ED08556005682C5997
:1007C00004F00204D4604FF4DA74056804EB0114F9
:1007D0002D5905F00F05156105682D59C5F307253D
:1007E000956105682C59240C54614FF4DC7204683F
:1007F00002EB0112A4581C700468A458240A5C700F
:100800000468A458240C9C700468A258120EDA7074
:100810004FF4DE72046802EB0112A4581C710468E4
:10082000A458240A5C710468A458240C9C710468C0
:10083000A258120EDA71006881B1016941F02001FD
:100840000161002030BDE468A8E7416A41F400116D
:100850004162012030BD6D0D1560AFE7C16841F008
:100860002001C160EDE72DE9F05F05460068002436
:100870004669D0F804908768D0F80CB0D0F810A082
:10088000D0F81880F10748D0F90714D00121816011
:10089000B80703D5284600F02AFA0CE0780702D5FD
:1008A0004FF4006407E0380702D54FF4805402E0AB
:1008B000284600F01BFAF80516D529684FF4807019
:1008C0008860B80503D5284600F013FA0CE07805D7
:1008D00002D544F4005407E0380502D544F48044BE
:1008E00002E0284600F004FAF80316D529684FF410
:1008F00080308860B80303D5284600F0FCF90CE08E
:10090000780302D544F4004407E0380302D544F4E8
:10091000803402E0284600F0EDF9300707D55FEAA1
:10092000CB6004D52968102044F40074C8607007B7
:100930004FF0080707D55FEA0B7004D52868C76039
:10094000284600F059F9B00706D52868C068800726
:1009500002D0284600F052F9700607D55FEACA6057
:1009600004D52968102044F480640861B00607D5D6
:100970005FEA0A7004D528680761284600F086F906
:10098000F00606D528680069800702D0284600F0E6
:100990007EF9B00308D55FEAC96005D52968102043
:1009A0004860284600F074F9F00307D55FEA097043
:1009B00004D528684760284600F09EF9300446D5E3
:1009C0005FEA497040D5F00504D55FEAC87001D0F0
:1009D00044F00104B00504D55FEA887001D544F005
:1009E0000204700504D55FEA487001D544F00404A0
:1009F000300529D518F0700F26D008F07000402877
:100A000015D006DC102809D020280AD0302816D1AD
:100A10000AE050280ED0602811D10EE044F00804FE
:100A20000DE044F010040AE044F0200407E044F034
:100A3000400404E044F0800401E044F48074286839
:100A4000816921F070018161296804204860002CCF
:100A500005D0686A204368622846FFF78FFEBDE82C
:100A6000F09F70B5040003D094F8200010B104E0AA
:100A7000012070BD204600F081F82068016841F037
:100A80000101016000F0F2FA0546052604E000F0DD
:100A9000EDFA401B0A2811D820684068C007F6D03C
:100AA0002068016821F00201016000F0DFFA0546CC
:100AB0000BE000F0DBFA401B0A2806D9606A40F41C
:100AC0000030606284F82060D2E7206840688007C8
:100AD000EFD4207E0128206801683DD021F08001FC
:100AE0000160607E01282068016838D021F0400153
:100AF0000160A07E01282068016833D021F0200128
:100B00000160E07E0128206801682ED041F01001CC
:100B10000160207F01282068016829D021F00801A8
:100B20000160607F01282068016824D021F0040161
:100B30000160D4E902010843D4E9041211430843D7
:100B40006168491E08432168C86100206062012075
:100B500084F82000002070BD41F08001C0E741F022
:100B60004001C5E741F02001CAE721F01001CFE7BD
:100B700041F00801D4E741F00401D9E710B586B08F
:100B80000021009101910291039100681749884268
:100B90002AD11748C16941F00071C161C16901F0F2
:100BA00000710491816941F0040181618069114CF7
:100BB00000F0040004904FF4006000906946204665
:100BC00000F056F9A0140090022001900320039039
:100BD0006946204600F04CF900220521142000F05F
:100BE00005FB142000F0F4FA06B010BD00640040CC
:100BF00000100240000801407047000010B5194B7A
:100C0000194A0021FFF7BBFD18B1BDE81040FFF7FE
:100C1000ECBC154A13489168042911D1134B516853
:100C2000C91815D0124BD9420AD10178114B01F0E5
:100C300001011970104B41881980104B818819806F
:100C400000210B464354491C0829FBDB536010BDAF
:100C50000B4B017819700B4B417819700A4B817856
:100C60001970EDE7240000200C0200202C2D3EE638
:100C70000100F8FF0300002006000020040000200F
:100C80000000002001000020020000207047704793
:100C90007047000070B5044690F82000012804D089
:100CA000606A40F40020606218E0022084F82000AE
:100CB0002068016821F00101016000F0D7F90546C4
:100CC0000EE000BF00F0D2F9401B0A2808D9606A84
:100CD00040F400306062052084F82000012070BDDF
:100CE00020684068C007EDD1606270BD70477047F2
:100CF0007047704770477047704710B590F82110E3
:100D00000022022905D00421816380F820200120DF
:100D100010BD01680B6823F00E030B6001680B68BF
:100D200023F001030B6090F84030C46B012101FAFD
:100D300003F3636080F8211080F82020104610BD76
:100D40002DE9F05F90F821100024022903D004213E
:100D50008163012485E001680A6822F00E020A60BE
:100D600001680A6822F001020A603F4E3E4FB21548
:100D7000DFF8F4C0DFF8F090DFF8ECA0DFF8E8B0BF
:100D8000DFF8E4E00168783F13011502ACF1640C70
:100D9000A9F15009AAF13C0AABF1280BAEF1140EEF
:100DA0004FF48018B14227D9B9420ED0614512D014
:100DB00049451DD0514518D0594518D0714501D12C
:100DC000424615E0294EB14201D1012210E0274EE2
:100DD0001436B14201D110220AE0244E2836B14225
:100DE00006D0224A3C32914201D11A4600E02A46FE
:100DF0001E49091F0A602BE0B94213D0614517D084
:100E0000494522D051451DD059451DD0714501D1CC
:100E100042461AE0B14202D14FF0807215E0134E03
:100E2000B14201D1012210E0104E1436B14201D17D
:100E300010220AE00D4E2836B14206D00B4A3C3251
:100E4000914201D11A4600E02A46074980394A609A
:100E5000012180F82110002180F82010416B01B1A0
:100E600088472046BDE8F09F800002400804024009
:100E70002DE9F84FDFF8B891002409F1040A0AF1CE
:100E8000040B23460F270BF1040EC9E00125A540F2
:100E90002A40AA427DD1674ED1F804C0ACEB0608C7
:100EA000B44532D014DCBCF1030F3AD009DCBCF1FC
:100EB000000F2AD0BCF1010F1CD0BCF1020F31D1C0
:100EC0001DE0BCF1110F17D0BCF1120F2AD119E0AF
:100ED000B8F5881F19D006DCB8F5803F15D0B8F5F5
:100EE000801F1FD111E0B8F5001F0ED0B8F5041F08
:100EF00018D10AE0CB6815E0CB681B1D12E0CB6867
:100F000008330FE0CB680C330CE08B682BB1012B5E
:100F10004FF0080303D0456104E0042302E00561BB
:100F200000E00023FF2A01D8064601E000F1040694
:100F30004FEA840501D9A5F12005D6F8008007FA0B
:100F400005FC28EA0C0803FA05F548EA0508C6F886
:100F500000804D68ED0062D5374DAE6946F0010660
:100F6000AE61AD6924F0030605F001050095334D2F
:100F700006EB050CDCF80850A607360F07FA06F852
:100F800025EA0805DFF8B880404503D14FF0000896
:100F900017E044E0DFF8AC80404502D14FF0010893
:100FA0000FE0DFF8A480404502D14FF0020808E0CE
:100FB000DFF89880404502D14FF0030801E04FF080
:100FC000040808FA06F848EA0508CCF808804D68D5
:100FD000D9F80060ED034D4601D5164300E0964375
:100FE0002E604D68DAF80060AD03554601D5164312
:100FF00000E096432E604D68DBF80060ED025D4630
:1010000001D5164300E096432E604D68DEF800607F
:10101000AD02754601D5164300E096432E60641C70
:101020000D682A46E5407FF431AFBDE8F88F000037
:1010300000040140000011100010024000000140B7
:1010400000080140000C0140001001400014014064
:10105000C26821EA02030A4043EA02410161704783
:101060000AB1016170470904FBE70000014880688C
:10107000704700002C00002070B5040011D02168DA
:101080004CF6CC400860216845F255500860D4E920
:10109000000141602168A0688860FFF7E7FF05460E
:1010A0000DE0012070BD00BFFFF7E0FF401B2728C7
:1010B00005D92068C068800701D0032070BD206872
:1010C000C0688007F0D121684AF6AA200860002095
:1010D00070BD00684AF6AA21016000207047000038
:1010E0000248816802781144816070472C0000201A
:1010F000074810B5016841F010010160032000F0BD
:1011000095F80F2000F006F800F03EF8002010BD22
:101110000020024000B5014687B00022192000F0EF
:1011200065F8192000F054F81348816941F4006112
:101130008161806905A900F400600690684600F0AE
:101140001DF900F04BF90D490D4AB0FBF1F10D48C6
:10115000491E0260416040F2E7320021C0E90321EC
:10116000816000F0A1FB10B1012007B000BD05486F
:1011700000F0C8FBF9E700000010024040420F00F9
:10118000002C0140A00200200F4808B5816941F001
:1011900001018161816901F001010091C16941F0A2
:1011A0008051C161C069002200F0805000900F2181
:1011B000901E00F01BF80548416821F0E06141F005
:1011C0000071416008BD00000010024000000140B5
:1011D000002809DB00F01F02012191404009800036
:1011E00000F1E020C0F8001170470000F0B40E4B91
:1011F0001B680C46C3F30223C3F10705042D00D975
:101200000425191D072901D2002300E0DB1E012659
:1012100006FA05F1491E214099409E40761E16406F
:101220003143F0BC01F000B90CED00E0064900F0DC
:10123000070208684FF6FF03184040EA0220034AFD
:1012400010430860704700000CED00E00000FA0554
:101250002DE9F0470F46050061D0434E306800F09D
:101260000700B84209D2306820F0070038433060E8
:10127000306800F00700B84251D128683B4C810724
:1012800012D5400703D5606840F4E06060602878BC
:10129000000703D5606840F4605060606068A9682A
:1012A00020F0F000084360602878C00728D0686804
:1012B000012810D02168022810D0890700292EDAD1
:1012C000616821F0030101436160FFF7CFFE8046B2
:1012D00041F288390DE021688903EFE78901EDE7E4
:1012E000FFF7C4FEA0EB0801494502D90320BDE881
:1012F000F0876068696800F00C00B0EB810FEFD1F7
:10130000306800F00700B8420BD9306820F00700C1
:1013100038433060306800F00700B84201D0012047
:10132000E5E72878400705D56068E96820F4E060C3
:10133000084360602878000706D56068296920F4B2
:10134000605040EAC100606000F058F86168084AE7
:10135000C1F30311515CC8400649086006480068A3
:10136000FFF7D8FE0020C2E7002002400010024034
:10137000842F000838000020300000200F22026077
:101380000C4A536803F003034360536803F0F0030F
:101390008360536803F4E063C36052684FF4E06312
:1013A00003EAD20202610448006800F00700086006
:1013B0007047000000100240002002400448054928
:1013C00000684968044AC1F30221515CC840704773
:1013D0003800002000100240942F000804480549FE
:1013E00000684968044AC1F3C221515CC840704793
:1013F0003800002000100240942F0008F0B524A20D
:1014000089B00FCA04AC84E80F0025A10FC98DE88C
:101410000F002748416801F00C02042A04D0082A72
:1014200004D0244809B0F0BD2348FBE704AAC1F367
:101430008343C903D45C28D5C16AC26A01F00F0195
:101440001DF80110D20316D5C26AC06AC2F3031296
:10145000521CA2FB0123C0F30320801CA0FB041537
:10146000154F0026A1FB070C05FB07C501FB065124
:10147000FEF7D6FE03E010486043B0FBF1F09DF8A4
:101480001D10A142CED14008CCE70C486043C9E70B
:10149000000004050607080900000000000D000018
:1014A0000102030405060708090A0B0C0D0E0F10B4
:1014B0000010024000127A0040787D0100093D00D2
:1014C0002DE9F84F040070D02078F14DC00749D0C5
:1014D0006868C0F38100012807D06868C0F3810004
:1014E000022809D16868C00306D52868800339D569
:1014F000A0680028E7D035E0A068B0F5803F0BD0A9
:1015000010B1B0F5A02F11D0286820F480302860E9
:10151000286820F4802002E0286840F480302860A9
:10152000A06890B1FFF7A2FD06460AE0286840F4E3
:1015300080202860F0E700BFFFF798FD801B64283B
:1015400076D828688003F7D50CE0FFF78FFD0646B4
:1015500005E000BFFFF78AFD801B6428F0D82868EB
:101560008003F7D42078CB4E80074FF001094FF06D
:1015700000073AD5686810F00C0F07D06868C0F310
:101580008100022809D16868C00306D42868800752
:1015900015D56069012808D111E06069B8B1C6F8B5
:1015A0000090FFF763FD804606E042E1FFF75EFD35
:1015B000A0EB08000228C3D828688007F6D5286861
:1015C000A16920F0F80040EAC10028600DE0376012
:1015D000FFF74CFD804605E0FFF748FDA0EB080053
:1015E0000228ADD828688007F6D4207800072ED5C9
:1015F000A948E169E9B1C0F80090FFF737FD8046DE
:1016000006E000BFFFF732FDA0EB0800022897D8E4
:10161000686A8007F6D5A1484FF4FA510068B0FB1C
:10162000F1F0009000BF0098411E0091FAD20EE048
:10163000B0E00760FFF71AFD804605E0FFF716FDF2
:10164000A0EB0800022889D8686A8007F6D42078C1
:10165000400763D5E8694FF00008C00009D4E86985
:1016600040F08050E861E8694FF0010800F08050D8
:1016700000908B480168C90512D40168834641F483
:1016800080710160FFF7F2FC824605E0FFF7EEFC97
:10169000A0EB0A0064287DD8DBF80000C005F5D572
:1016A000206901280AD008B1052813D0286A20F043
:1016B00001002862286A20F0040002E0286A40F055
:1016C00001002862206941F2883B98B1FFF7CEFC07
:1016D00082460BE0286A40F004002862EEE700BF73
:1016E000FFF7C4FCA0EB0A01594553D8286A8007CC
:1016F000F6D50CE0FFF7BAFC824605E0FFF7B6FC32
:10170000A0EB0A01594545D8286A8007F6D4B8F1FC
:10171000000F03D0E86920F08050E861E06AD0B3A0
:101720006968C90307D56968C1F38101022902D13B
:10173000E96AC9037DD4022808D0E86A20F4803021
:10174000E862B766FFF792FC80463BE02868C0007D
:1017500005D5E86A616B00F0F000884269D1B76690
:10176000FFF784FC804605E0FFF780FCA0EB080053
:10177000642874D828680001F6D4E86A616B20F008
:10178000F0000843E862E86A216B20F470600843C7
:10179000E86201E063E018E0C6F86890FFF766FCD5
:1017A000804605E0FFF762FCA0EB0800642856D8ED
:1017B00028680001F6D508E0FFF758FCA0EB080008
:1017C00064284CD828680001F6D4206A90B3696870
:1017D000C1F38101022949D00228376603D0FFF7FF
:1017E00045FC04463EE0FFF741FC074605E000BF2C
:1017F000FFF73CFCC01B022831D828688001F7D4D1
:10180000606AB0F5803F09D1E86A61680843E86220
:10181000E86AE16820F00F000843E862D4E90901B2
:101820000843696821F4741108436860C6F8609041
:1018300001E028E029E0FFF719FC044605E000BFBD
:10184000FFF714FC001B022809D828688001F7D58F
:101850001BE000BFFFF70AFC001B022802D903208F
:10186000BDE8F88F28688001F4D40EE00128F7D095
:101870006868626A00F48031914204D1A16A00F480
:101880007010884201D00120EAE70020E8E700005C
:101890000010024000004242800442423800002012
:1018A000007000407047704710B5040003D094F8F2
:1018B0003D0010B107E0012010BD002084F83C007D
:1018C000204600F01EF8022084F83D00211D20680B
:1018D00000F052FC012084F8460084F83E0084F8B1
:1018E0003F0084F8400084F8410084F8420084F806
:1018F000430084F8440084F8450084F83D0000204B
:1019000010BD704790F83D10012901D001207047AB
:10191000022180F83D100168CA6842F00102CA60E5
:1019200000680D4988420BD0B0F1804F08D00B49B8
:10193000884205D00A49884202D00A49884204D127
:10194000816801F00701062903D0016841F0010117
:101950000160002070470000002C0140000400409E
:1019600000080040000C0040704770B50446006855
:1019700001694FF00005C943890715D4C168C943FF
:10198000890711D4E91E0161012020772068806950
:101990008007204602D0FFF7E7FF04E000F098F848
:1019A000204600F096F8257720680169C943490769
:1019B00017D4C168C943490713D46FF0040101610A
:1019C000022020772068806910F4407F204602D0F2
:1019D000FFF7CAFF04E000F07BF8204600F079F83A
:1019E000257720680169C943090716D4C168C9432E
:1019F000090712D46FF008010161042020772068E4
:101A0000C0698007204602D0FFF7AEFF04E000F077
:101A10005FF8204600F05DF8257720680169C9432A
:101A2000C90617D4C168C943C90613D46FF01001A1
:101A30000161082020772068C06910F4407F2046AB
:101A400002D0FFF791FF04E000F042F8204600F0DA
:101A500040F8257720680169C943C90708D1C168E2
:101A6000C943C90704D1891E0161204600F032F83C
:101A700020680169C943090609D4C168C943090638
:101A800005D46FF0800101612046FFF70BFF20684D
:101A90000169C943490609D4C168C943490605D447
:101AA0006FF040010161204600F01EF820680169D6
:101AB000C94389060BD4C168C943890607D46FF0AE
:101AC000200101612046BDE87040FFF7ECBE70BD0B
:101AD0007047704700680349884201D1FFF700BB97
:101AE00070470000002C01407047704770470000AD
:101AF000F8B5026804461068D168536910F00F0FFA
:101B00004FF0000553D003F0010601F490773743FE
:101B10005FD0C20705D0CA0503D5226C42F001028E
:101B20002264420705D5DA0703D0226C42F0020294
:101B30002264820705D5DA0703D0226C42F0040242
:101B40002264020707D501F02002324303D0226C41
:101B500042F008022264226C002A34D0800604D5A8
:101B6000880602D5204600F065FB20684069216C9C
:101B7000C0F38010090700D430B3204600F042FBC8
:101B80002068416949061BD5416921F04001416146
:101B9000A06BA8B158494163A06BFFF7D1F80028AA
:101BA00011D0A06B416B01B0BDE8F040084783063F
:101BB0000FD58B060DD52046BDE8F84000F03ABBA6
:101BC0002046FFF793FFF8BD2046FFF78FFF2564FF
:101BD000F8BD266B2023012E52D1C60650D5CE0665
:101BE0004ED5106850680090506940062AD5A16B08
:101BF000086840680004000CEAD0A68D8642E7D948
:101C0000E0858869202818D0D06820F48070D060E2
:101C10002068416921F0010141612068416921F09A
:101C20004001416184F83E3025632068C16821F09D
:101C30001001C160A06BFFF760F8A08DE18D401A24
:101C400081B219E0A08DE18D401A81B2E08D0028AB
:101C5000BED00029BCD0D06820F49070D06020683D
:101C6000426922F00102426184F83E302563206817
:101C7000C26822F01002C2602046FFF736FFF8BDAE
:101C800005062BD50D0629D594F83D002128F6D15F
:101C9000A068B0F5805F01D12069B0B1206A411C15
:101CA0002162216800784860E08C401E0004000C2E
:101CB000E084E4D12068C16821F08001C16020681F
:101CC000C16841F04001C160F8BD206A0088C0F3DE
:101CD00008005060206A801C2062E5E74006F3D5CA
:101CE0004806F1D5D168204621F04001D16084F842
:101CF0003D3000F0D0F8F8BDF521000870B50400C3
:101D000004D094F83D00002510B106E0012070BD1C
:101D100084F83C50204600F023F8242084F83D004D
:101D20002068C16821F40051C160204600F0DEFA4D
:101D30002068016921F4904101612068416921F026
:101D40002A0141612068C16841F40051C1602564E5
:101D5000202084F83D0084F83E00002070BD000083
:101D600070B586B000240094019402940394006836
:101D7000184988422BD11848816941F4804181611A
:101D8000816901F480410491816941F0040181611C
:101D90008069022500F0040004904FF40070CDE942
:101DA000000503200D4E039069463046FFF760F8AA
:101DB00068028DE8310069463046FFF759F8002285
:101DC00005212520FFF712FA2520FFF701FA06B0BA
:101DD00070BD0000003801400010024000080140C2
:101DE000704700002DE9F843044690F83D001F4677
:101DF00016460D4620284CD1C5B1BEB194F83C0022
:101E0000012846D0012084F83C004FF00008C4F8B7
:101E10004080212084F83D00FFF728F9A684814600
:101E2000E684A068B0F5805F03D004E00120BDE83F
:101E3000F883206928B12E465FF0000584F83C80C5
:101E40000EE00026FAE78021204600F0ABFAA0B9A8
:101E5000AEB116F8010B21684860E08C401EE084AA
:101E6000E08C4B464FF0000200970028EBD14FF07A
:101E70004001204600F096FA30B10320D7E735F84C
:101E8000020BC0F30800E6E7202084F83D000020A4
:101E9000CDE70220CBE77047FEE70000104810B501
:101EA0000E4901600921416000214FF4C022816088
:101EB000C0E903124FF4E002426101764176817677
:101EC0000122C27601774177FEF7CBFD002803D0CF
:101ED000BDE81040FEF789BB10BD00000064004063
:101EE0002802002010B59CB01C2216496846FEF757
:101EF000D8F90021684600F0FBFA134C11491C2266
:101F0000A0601C3107A8FEF7CCF9002107A800F05B
:101F1000EFFA0C49E0601C2238310EA8FEF7C1F937
:101F200000210EA800F0E4FA064920611C22543179
:101F300015A8FEF7B6F9002115A800F0D9FA6061DE
:101F40001CB010BD142F0008000000202DE9F04740
:101F500086B000200090019002900390274881698C
:101F600041F040018161816901F040010491816982
:101F700041F004018161816901F0040104918169EA
:101F800041F0200181618069DFF8748000F0200059
:101F90004FF63C740490002221464046FFF760F85B
:101FA000DFF860900022FC214846FFF759F8DFF87F
:101FB00058A043F60177002239465046FFF750F803
:101FC000009401AA01240225032682E870006946D4
:101FD0004046FEF74DFFFC208DE8710069464846FB
:101FE000FEF746FF01AA009782E870006946504656
:101FF000FEF73EFF06B0BDE8F0870000001002408B
:10200000001801400008014000140140094810B5C3
:1020100007490160042141604FF4FA718160FFF7C4
:102020002BF8002803D0BDE81040FEF7DEBA10BD43
:1020300000300040500200200C4810B50A490160F1
:102040004FF4E1314160002181600C22C160C0E9A0
:1020500004128161C161FFF751FE002803D0BDE881
:102060001040FEF7C2BA10BD003801405C020020EB
:10207000FEE770474FF47A74204600F02DFAFBE734
:1020800010B5502080F31188BFF34F8FBFF36F8FCF
:1020900000F07AFE18B104494FF08050086000202B
:1020A00080F3118810BD000004ED00E030B593B05E
:1020B00038216846FEF70EF914210EA8FEF70AF93A
:1020C0000920009001244FF4803004210794CDE9C9
:1020D00002010225CDE90850019005944FF4E0106B
:1020E000CDE90A054FF4C0600C9040200D90684681
:1020F000FFF7E6F90F20CDE90E050020A102CDE99A
:102100001001129002210EA8FFF7A2F801480467FF
:1021100013B030BD000042421048016841F0010197
:10212000016041680E4A1140416001680D4A11404A
:102130000160016821F480210160416821F4FE0101
:102140004160016821F0A05101604FF47F0181607E
:102150000021C1620449C0030860704700100240BA
:102160000000FFF0FFFFF6FE08ED00E00148FFF77A
:10217000FCBB0000A0020020F0B50268194B1A4C0D
:102180001A4D1B4E4FF08047984207D0B84205D0F9
:10219000A04203D0A84201D0B04204D122F0700C7A
:1021A0004A6842EA0C02984207D0B84205D0A042E1
:1021B00003D0A84201D0B04203D122F44074CA68CF
:1021C00022434C6922F08002224302608A68C26284
:1021D0000A688262984201D1096901630121416163
:1021E000F0BD0000002C0140000400400008004049
:1021F000000C004010B5406A0021C185C184FFF782
:1022000075FC10BD0168CA6822F49072CA6001684A
:102210004A6922F001024A61016B012904D1016877
:10222000CA6822F01002CA60202180F83E10002106
:102230000163704708B590F83E10222901D00220B2
:1022400008BD82684FF480539A4201D1016921B1DF
:10225000816A9A421BD04AB10AE00268816A5268D8
:10226000C2F308020A80816A891C08E0026972B11F
:102270000268526802F07F020A70816A491C81621A
:10228000C18D491E0904090CC18503D019E00268FB
:102290005268F1E70168CA6822F02002CA6001684A
:1022A000CA6822F48072CA6001684A6922F0010299
:1022B0004A61202180F83E10016B012903D0FFF70D
:1022C0008FFD002008BD002101630168CA6822F06B
:1022D0001002CA6001680A68D20602D50A68496815
:1022E0000091818DFFF701FCEBE7000070B504461B
:1022F00000680169E26821F44051114301612169DC
:10230000A0680843616908432168CA6841F20C6308
:102310009A430243CA6020684169A26921F440716E
:10232000114341611E492068884202D1FFF756F8E7
:1023300001E0FFF743F800EBC00101EB0012606819
:1023400064218000B2FBF0F3B3FBF1F36FF01806E9
:102350007343B2FBF0F5B2FBF0F605EB83053223D5
:1023600003EB0515B5FBF1F5B6FBF1F605F0F0054D
:1023700005EB0615B2FBF0F6B2FBF0F0B0FBF1F0A6
:102380006FF01802504306EB800003EB0010B0FB27
:10239000F1F0216800F00F002844886070BD000053
:1023A000003801402DE9F041984617460E46044694
:1023B000069D1DE0681C1BD02DB1FEF757FEA0EB5B
:1023C0000800A84214D92068C16821F4D071C16006
:1023D0002068416921F001014161202084F83D001D
:1023E00084F83E00002084F83C000320BDE8F08122
:1023F0002068006836EA000004D00020B842D9D036
:102400000020F3E70120F9E70148FFF771BB000066
:102410005C020020FEE70000014A024900F023B8F8
:10242000892400089C0000200907090E002804DB0D
:1024300000F1E02080F80014704700F00F0000F178
:10244000E02080F8141D704702E008C8121F08C180
:10245000002AFAD170477047002001E001C1121F25
:10246000002AFBD170472DE9F04116460F4604467D
:10247000002503E03946B047641C6D1C2078002815
:10248000F8D12846BDE8F08113B54FF6FF7301225D
:1024900069460248FFF7A6FC00981CBD5C020020BC
:1024A000FEF726FEFFF702FEFFF750FDFFF7F6FCF2
:1024B000FFF7C2FDFFF7AAFD0348FDF73FFFFFF757
:1024C00011FD00F010F8FEE7280200200146002070
:1024D000842900D0C81C704710B500B9012000F055
:1024E00015FB002010BD10B500F036FB002010BD1C
:1024F0007FB50D4604464169B0F9080081B1A16974
:1025000071B1FFF7E3FFD4E905128DE80700D4E9C4
:1025100000102B46226900F00CFC039004B070BD43
:10252000FFF7D4FF03A9CDE90001208A2B4682B230
:10253000D4E9001000F0D0FB012801D00020EDE725
:102540000398EBE72DE9F041184C0F460546666904
:102550002068001D00F016FA38B9206890F82C1099
:1025600001208840A1698143A161681C07D137B16E
:102570002168BDE8F0410E48091D00F047BA206807
:102580003544B5424560216805D2A068BDE8F041F8
:10259000091D00F023BA6068091D00F01FFA206BC6
:1025A000854200D22563BDE8F08100003C00002098
:1025B000C40300202DE9F041054600F033FA2E4C0B
:1025C0002069401C206120682C4F10B1E06940B3A5
:1025D0002DE025602069012829D1002606EB860020
:1025E00007EB800000F0ECF9761C072EF6D32348A9
:1025F0008C3000F0E5F92148A03000F0E1F91F48E7
:10260000B43000F0DDF91D48C83000F0D9F91B489E
:10261000DC3000F0D5F919488C3060601430A060CF
:1026200005E02068E96AC06A884200D82560E06A4F
:10263000401CE062E96A0120A26988401043A06161
:1026400001EB810007EB8000291D00F0DFF900F0AD
:1026500009FAE06900280CD02068E96AC06A88425B
:1026600007D207494FF080500860BFF34F8FBFF388
:102670006F8FBDE8F08100003C000020E8020020E0
:1026800004ED00E010B5044690F8510058B101285F
:102690000CD002280FD0502080F31188BFF34F8F49
:1026A000BFF36F8FFEE7206B00F0F0F92046BDE826
:1026B000104000F0EBB910BD10484FF40051420734
:1026C00006D0C01D0D4920F00700411AC1F5005188
:1026D0000B4A00230144C2E900030839103A21F0F3
:1026E000070111604B600B600B1AC0E90013936087
:1026F0004FF000405360D06070470000D8030020C6
:1027000088000020144E154CA6F1C8074FF08058E1
:10271000DFF84C9012E000BF00F084F9F068C56863
:10272000281D00F02FF92069401E2061E068401E3E
:10273000E06000F097F92846FFF7A4FFE068002862
:10274000EAD138680128F9D9C9F80080BFF34F8F62
:10275000BFF36F8FF2E70000B00300203C000020C1
:1027600004ED00E02DE9F0479A46DDE90984814651
:102770006FF00303206B03EB82021044089D20F0EE
:102780000706700707D0502080F31188BFF34F8FE2
:10279000BFF36F8FFEE723180A5C83F834200A5CCE
:1027A00012B1401C1028F6D3002784F84370072D7F
:1027B00000D30625E562C4E91157201D00F00BF98E
:1027C00004F1180000F007F92461C5F10700646204
:1027D000A061E76484F8507052464946304600F0E4
:1027E000BFF82060B8F1000F01D0C8F80040BDE884
:1027F000F087000030B5114900E011460A688242B6
:10280000FBD34B685C18844203D14068184448608D
:10281000084643681C18944209D1084C103C2468AF
:10282000A24209D052681A4442600A6812680260E3
:10283000814200D0086030BD0460F9E788000020C4
:1028400006484168096829B14168C968C96849688A
:10285000016370474FF0FF31FAE700003C000020B1
:1028600008484068401C4FF0500080F3118804D0A5
:10287000BFF34F8FBFF36F8FFEE7BFF34F8FBFF3F1
:102880006F8FFEE7900000202DE9F04105460027FC
:1028900000F098F9314E306808B9FFF70DFFF06885
:1028A00005424BD1C5B3083568070ED005F00700C7
:1028B000C0F108000544680707D0502080F3118854
:1028C000BFF34F8FBFF36F8FFEE72DB37068854264
:1028D00034D82248103001460C6801E020460C46EE
:1028E0006168A94202D221680029F7D131688C427F
:1028F00024D007682168016060680837411B1029EF
:102900000FD96019420708D0502080F31188BFF317
:102910004F8FBFF36F8FFEE710E041606560FFF7F8
:1029200069FF61687068401A7060B268904200D2B6
:10293000B060F06801430020C4E9000100F088FAAB
:10294000780707D0502080F31188BFF34F8FBFF373
:102950006F8FFEE73846BDE8F08100007800002068
:1029600010B5031F4FF080741C601B1F21F0010184
:102970001960191F024B0B60143940380A6010BDF2
:1029800061280008D0E9013201699A60D0E9012389
:102990005A604A68824201D182684A60002202611C
:1029A0000868401E0860086870470000034B036019
:1029B00003F154000860402010607047A000002020
:1029C00000F108014FF0FF32C0E90112C16001615E
:1029D00000210160704700210161704730B50B682C
:1029E0005A1C02D000F1080202E0026904E022460B
:1029F000546825689D42FAD953684B6099608A6093
:102A0000516008610168491C016030BD42684A603C
:102A100093688B6093685960916008610168491CF4
:102A200001607047502080F31188BFF34F8FBFF3D0
:102A30006F8F0A494868401C486001280CD108483B
:102A4000006810F0FF0F07D0502080F31188BFF30B
:102A50004F8FBFF36F8FFEE770470000900000209C
:102A600004ED00E00849486828B1401E486001D1E3
:102A700080F311887047502080F31188BFF34F8F87
:102A8000BFF36F8FFEE700009000002070B50028B4
:102A900027D0144DA0F108046168E868014207D10D
:102AA000502080F31188BFF34F8FBFF36F8FFEE785
:102AB00022683AB1502080F31188BFF34F8FBFF3E3
:102AC0006F8FFEE78143616000F07CF860686968A1
:102AD000084468602046FFF78DFEBDE8704000F0B6
:102AE000B7B970BD780000204FF0E02000210161EF
:102AF000816105494FF47A720968B1FBF2F1491E10
:102B000041610721016170473800002010B50200C3
:102B100014D00F48806B38B1502080F31188BFF378
:102B20004F8FBFF36F8FFEE700F04CF80021104687
:102B3000FFF708FD00F08CF9002807D105494FF098
:102B400080500860BFF34F8FBFF36F8F10BD000040
:102B50003C00002004ED00E010B586B00024039492
:102B600005AA04A903A80494FFF720FFDDE90301E7
:102B70000094CDE9011000230EA11048059A00F041
:102B8000D8F80F490028486311D0502080F31188ED
:102B9000BFF34F8FBFF36F8F4FF0FF3008630120FB
:102BA000C8614C6106B0BDE8104000F041B806B005
:102BB00010BD000049444C450000000005270008F6
:102BC0003C0000200248816B491C81637047000073
:102BD0003C0000201448816B11B101214162704713
:102BE000002141628169B1FA81F1C1F11F0101EB5C
:102BF00081020E4951F822306BB101EB820101F1E3
:102C000008034A6852684A609A4201D152684A6091
:102C1000D16801607047502080F31188BFF34F8F57
:102C2000BFF36F8FFEE700003C000020E8020020A9
:102C30001CB5264908780190FF20087008788DF8A7
:102C400000009DF800009DF8002000F0F000904288
:102C500007D0502080F31188BFF34F8FBFF36F8FE1
:102C6000FEE79DF800001A4B00F050001870072096
:102C7000986005E09DF8002052008DF80020401E6D
:102C80009DF800201206F5D49860032807D0502044
:102C900080F31188BFF34F8FBFF36F8FFEE74FF4C0
:102CA00040709860019808700A48016841F470010A
:102CB0000160016841F070410160FFF715FF0020DD
:102CC0005860FDF761FA00201CBD000000E400E040
:102CD0009000002020ED00E02DE9FF5F8346DDE954
:102CE0000E87994616468A469000FFF7CDFD0500EF
:102CF0001CD05420FFF7C8FD040014D00020256329
:102D000084F85100CDE90240CDE900874B463246B8
:102D100051465846FFF726FD2046FFF74BFC0120A1
:102D200004B0BDE8F09F2846FFF7B0FE4FF0FF303B
:102D3000F6E7F0B585B0DDE90B640A9DA6B1DCB11C
:102D4000542700972663022684F85160002604AFBA
:102D5000CDE90246CDE90057FFF704FD2046FFF715
:102D600029FC049805B0F0BD502080F31188BFF312
:102D70004F8FBFF36F8FFEE7502080F31188BFF3B2
:102D80004F8FBFF36F8FFEE72DE9F0412E4C0027E8
:102D9000A06B40B1206A401C2062606A00B101272C
:102DA0003846BDE8F0816669761C666113D16068BB
:102DB000006838B1502080F31188BFF34F8FBFF304
:102DC0006F8FFEE76068A1686160A060A06A401C28
:102DD000A062FFF735FD206BDFF87080864209D3D3
:102DE0006068006880B16068C068C56868688642CD
:102DF0000DD220632068C06A00EB800158F82100E2
:102E00000128CAD90127C8E74FF0FF30F1E7281D94
:102E1000FFF7B8FDA86A18B105F11800FFF7B2FD79
:102E2000E86A0121A26981401143A16100EB8001A0
:102E300008EB8100291DFFF7E9FDE86A2168C96AEE
:102E40008842CDD30127CBE73C000020E8020020D8
:102E50002DE9F0472C4D00242746A86B38B1FFF729
:102E6000E1FDA86B401EA863A86B40B146E050206E
:102E700080F31188BFF34F8FBFF36F8FFEE729698F
:102E8000224E0120D1B3A6F1B40980463068E8B1E2
:102E9000F068C46804F11800FFF774FD201DFFF707
:102EA00071FDE06AAA6908FA00F11143A96100EB1B
:102EB000800109EB8100211DFFF7A8FDE06A296868
:102EC000C96A8842E2D3C5F82480DFE70CB1FFF776
:102ED000B7FC2C6A44B14646FFF756FF00B16E625C
:102EE000641EF9D100202862686A38B108490127B8
:102EF00038070860BFF34F8FBFF36F8FFFF7B2FD46
:102F00003846BDE8F08700003C0000209C0300200C
:102F100004ED00E0C42F0008752000080000000048
:102F20000000000040000000000000000000000061
:102F30009C2F0008B1030008010000000000000001
:102F4000800000000000000000000000B42F000816
:102F5000ED05000800000000000000004000000037
:102F60000000000000000000A82F00081106000863
:102F7000020000000000000040000000000000000F
:102F80000000000000000000000000000102030437
:102F90000607080900000000010203045461736B76
:102FA0005F43414E000000005461736B5F4750491E
:102FB0004F0000005461736B5F46656564446F6742
:102FC0000000000064656661756C745461736B0089
:102FD000F02F000800000020A00000004824000896
:102FE00090300008A0000020382700005824000876
:102FF00000000000000000000000000000000000D1
:1030000000000000000000000000000000000000C0
:1030100000000000000000000000000001000000AF
:1030200010000000000000000024F4000000000078
:103030000000000000000000000000000000000090
:103040000000000000000000000000000000000080
:103050000000000000000000000000000000000070
:103060000000000000000000000000000000000060
:103070000000000000000000000000000000000050
:1030800000000000AAAAAAAA000000000000000098
:04000005080001519D
:00000001FF
