:020000040800F2
:10000000202A00208502000843280008F922000861
:100010004128000839050008692C0008000000008C
:10002000000000000000000000000000ED010008DA
:100030006D05000800000000310200086928000872
:100040009F0200089F0200089F0200089F0200080C
:100050009F0200089F0200089F0200089F020008FC
:100060009F0200089F0200089F0200085505000833
:100070009F0200089F0200089F0200089F020008DC
:100080009F0200089F0200089F0200089F020008CC
:100090003D0500089F0200089F0200089F0200081B
:1000A0009F020008692900089F0200089F020008BB
:1000B00075290008812900088D2900089F02000881
:1000C0009F0200089F0200089F0200089F0200088C
:1000D0009F0200085D2C00089F0200089F02000894
:1000E0009F0200089F0200089F0200080000000015
:1000F0000000000000000000000000000000000000
:1001000000000000000000009F0200089F0200089D
:100110009F0200089F0200089F0200089F0200083B
:100120009F0200089F0200089F0200089F0200082B
:100130009F0200089F0200089F0200089F0200081B
:100140009F0200089F0200089F0200089F0200080B
:1001500000F002F800F03AF80AA090E8000C82449F
:100160008344AAF10107DA4501D100F02FF8AFF27C
:10017000090EBAE80F0013F0010F18BFFB1A43F085
:10018000010318473036000050360000103A24BFF3
:1001900078C878C1FAD8520724BF30C830C144BFEC
:1001A00004680C607047000000230024002500262E
:1001B000103A28BF78C1FBD8520728BF30C148BFCA
:1001C0000B6070471FB51FBD10B510BD00F04DF995
:1001D0001146FFF7F7FF02F05EFD00F06BF903B484
:1001E000FFF7F2FF03BC00F073F90000224B19681F
:1001F0000868B0E8F00F80F30988BFF36F8F4FF005
:10020000000080F311884EF00D0E704700000000D2
:1002100006480068006880F3088862B661B6BFF3DC
:100220004F8FBFF36F8F00DF00BF00BF08ED00E00E
:10023000EFF30980BFF36F8F0F4B1A6820E9F00FBF
:10024000106008B54FF0500080F31188BFF34F8F56
:10025000BFF36F8F03F092F84FF0000080F3118826
:10026000BDE8084019680868B0E8F00F80F3098815
:10027000BFF36F8F704700BF34000020EFF305809D
:10028000704700000948804709480047FEE7FEE73D
:10029000FEE7FEE7FEE7FEE7FEE7FEE7FEE7FEE736
:1002A00004480549054A064B704700001529000817
:1002B0005101000820240020202A002020260020B0
:1002C0002026002053EA020C00F069802DE9F04B53
:1002D0004FF00006002B1FBFB3FA83F503FA05F4B5
:1002E00024FA05F65E4012BF1643B2FA82F502FA0E
:1002F00005F4C5F120051EBF22FA05FC44EA0C04F2
:10030000203556EA044C4FEA144418BF641C4FF0E1
:1003100000084FF00009904271EB030C39D300291B
:1003200019BFB1FA81F701FA07F6B0FA80F700FABF
:1003300007F6C7F120071EBF20FA07FC46EA0C06A5
:100340002037B6FBF4FCA7EB0507103F07F01F0BA7
:10035000CBF120060CFA0BFB2CFA06F644BFB34691
:100360000026202FA4BF5E464FF0000B5BEA060C70
:1003700008BF4FF0010B19EB0B09ABFB027C48EBFC
:100380000608C01B06FB02CC0BFB03CC71EB0C0177
:10039000C1E70B46024641464846BDE8F08B13B51F
:1003A0004FF000004FF00001AFF30080BDE81C40AB
:1003B000704710B5203AC0F00B80B1E81850203AD1
:1003C000A0E81850B1E81850A0E81850BFF4F5AFF5
:1003D0005FEA027C24BFB1E81850A0E8185044BF7F
:1003E00018C918C0BDE810405FEA827C24BF51F8EC
:1003F000043B40F8043B08BF7047D20728BF31F8E0
:10040000023B48BF11F8012B28BF20F8023B48BF30
:1004100000F8012B70474FF0000200B513469446D8
:100420009646203922BFA0E80C50A0E80C50B1F14C
:100430002001BFF4F7AF090728BFA0E80C5048BF60
:100440000CC05DF804EB890028BF40F8042B08BFFE
:10045000704748BF20F8022B11F0804F18BF00F8FA
:10046000012B7047704770477047754600F02CF8B5
:10047000AE4605006946534620F00700854618B091
:1004800020B5FFF70DFFBDE820404FF000064FF00C
:1004900000074FF000084FF0000B21F00701AC46B9
:1004A000ACE8C009ACE8C009ACE8C009ACE8C009D8
:1004B0008D46704710B50446AFF300802046BDE876
:1004C0001040FFF78CBE000000487047C02300209A
:1004D00001491820ABBEFEE726000200704700006D
:1004E00070B5044600688168C943C9071CD181689A
:1004F00021F00101816000F07FFE05460FE000BFA2
:1005000000F07AFE401B022809D9A06A40F01000D2
:10051000A062E06A40F00100E062012070BD206846
:100520008068C043C007EBD0002070BD4FF47A74E0
:10053000204602F0D3FBFBE7FEE70000014800F095
:1005400090B90000080100204FF47A74204602F0B0
:10055000C5FBFBE7014800F0F1BB0000C400002030
:100560004FF47A74204602F0B9FBFBE770477047FE
:10057000064C4FF4FA75064800F055FF012120465D
:1005800000F02EFE284602F0A9FBF4E7001401401B
:1005900084010020F8B50024009490F8242025461A
:1005A000012A12D0012280F824204A681F23072A3A
:1005B0000DD20668776B521E02EB820293409F4376
:1005C0000B6893401F43776319E00220F8BD06686B
:1005D0000D2A0AD2376BD21F02EB820293409F434F
:1005E0000B6893401F43376309E0F76A0D3A02EB4B
:1005F000820293409F430B6893401F43F7620A684F
:10060000072306680A2A0AD3F7680A3A02EB42026D
:1006100093409F438B6893401F43F76008E037691E
:1006200002EB420293409F438B6893401F43376124
:100630000A68102A01D0112A20D1124B02689A426E
:1006400017D193681B0219D4936843F40003936095
:100650000968102912D10C490C4A0968B1FBF2F162
:1006600001EB8101490000E0491E00910029FBD106
:1006700004E0816A41F020018162012480F8245065
:100680002046F8BD002401403000002040420F0009
:100690002DE9F0414FF0000704003D467ED0A06AEE
:1006A000002628B9E66284F82460204600F07EF82F
:1006B0002046FFF715FFA16AC90600D420B1A06A41
:1006C00040F01000A06269E0A16A21F4885141F075
:1006D0000201A1626268E169237B0A4347EA4301A0
:1006E0000A43A1684FF48077B94209D0012907D0A5
:1006F0005FF0000194F814C0BCF1010F02D00AE0D1
:100700003946F7E7F3B1A36A43F02003A362E36A33
:1007100043F00103E3622368D3F804C02CF4694C6E
:100720004CEA010CC3F804C021688B68DFF870C084
:1007300003EA0C0313438B60A168B9420BD0012973
:1007400009D00CE0DFF85CC0A3690CEB43330B432A
:1007500043F40061DFE7218A0D05A5F580152168C6
:10076000CB6A23F470032B43CB62216889680E4B5C
:100770001940914208D1E662A16A21F0020141F0DC
:100780000101A162BDE8F081A06A20F0020040F002
:100790001000A062E06A40F00100E0620120F1E791
:1007A000FDF7E1FF00E0FFFFFE0E1FFF70B586B012
:1007B0000026054600960196029603960068224997
:1007C00088423ED12149886940F400708861886977
:1007D00000F400700490886940F010008861886916
:1007E00000F010000490886940F008008861886972
:1007F000032400F0080004903F20CDE9000469467E
:10080000134800F0FDFB0220CDE9000469461148C1
:1008100000F0F6FB114C1048C4E900068020C4E942
:10082000026040002061800060612020A061000221
:10083000E061204600F0A6FB08B1FFF798FE2C62AD
:10084000656206B070BD0000002401400010024047
:1008500000100140000C014008000240C4000020CC
:1008600070472DE9F05F0546006800244669D0F81E
:1008700004908768D0F80CB0D0F810A0D0F8188099
:10088000F10748D0F90714D001218160B80703D5DA
:10089000284600F0B5F90CE0780702D54FF4006463
:1008A00007E0380702D54FF4805402E0284600F0F4
:1008B000A6F9F80516D529684FF480708860B80548
:1008C00003D5284600F09EF90CE0780502D544F4E3
:1008D000005407E0380502D544F4804402E028467D
:1008E00000F08FF9F80316D529684FF4803088603E
:1008F000B80303D5284600F087F90CE0780302D549
:1009000044F4004407E0380302D544F4803402E0A4
:10091000284600F078F9300707D55FEACB6004D5A8
:100920002968102044F40074C86070074FF008076D
:1009300007D55FEA0B7004D52868C760284600F029
:1009400059F9B00706D52868C068800702D0284644
:1009500000F051F9700607D55FEACA6004D529682E
:10096000102044F480640861B00607D55FEA0A707D
:1009700004D528680761284600F03EF9F00606D540
:1009800028680069800702D0284600F036F9B003D5
:1009900008D55FEAC96005D5296810204860284657
:1009A00000F02CF9F00307D55FEA097004D5286838
:1009B0004760284600F029F9300446D55FEA4970BF
:1009C00040D5F00504D55FEAC87001D044F00104B9
:1009D000B00504D55FEA887001D544F002047005C3
:1009E00004D55FEA487001D544F00404300529D5E8
:1009F00018F0700F26D008F07000402815D006DCE3
:100A0000102809D020280AD0302816D10AE0502812
:100A10000ED0602811D10EE044F008040DE044F03F
:100A200010040AE044F0200407E044F0400404E02D
:100A300044F0800401E044F480742868816921F066
:100A400070018161296804204860002C05D0686A23
:100A5000204368622846FFF703FFBDE8F09F70B5AA
:100A6000040003D094F8200010B104E0012070BD10
:100A7000204600F081F82068016821F00201016041
:100A800000F0BAFB0546052604E000F0B5FB401B6C
:100A90000A2811D8206840688007F6D420680168C9
:100AA00041F00101016000F0A7FB05460BE000F0FA
:100AB000A3FB401B0A2806D9606A40F4003060623C
:100AC00084F82060D2E720684068C007EFD0207E1D
:100AD0000128206801683DD021F080010160607E1E
:100AE00001282068016838D021F040010160A07E13
:100AF00001282068016833D021F020010160E07EE8
:100B00000128206801682ED041F010010160207F8B
:100B100001282068016829D021F008010160607F68
:100B200001282068016824D021F004010160D4E983
:100B300002010843D4E90412114308436168491EC5
:100B400008432168C86100206062012084F8200009
:100B5000002070BD41F08001C0E741F04001C5E7D1
:100B600041F02001CAE721F01001CFE741F0080170
:100B7000D4E741F00401D9E710B586B00021009117
:100B80000191029103910068174988422AD11748C0
:100B9000C16941F00071C161C16901F00071049146
:100BA000816941F0040181618069114C00F0040009
:100BB00004904FF4006000906946204600F020FA4F
:100BC000A014009002200190032003906946204663
:100BD00000F016FA00220521142000F0B1FC1420C8
:100BE00000F0A0FC06B010BD006400400010024000
:100BF0000008014070477047704770477047704762
:100C00007047704770477047704770472DE9F05F35
:100C100090F821100024022903D0042181630124CB
:100C200085E001680A6822F00E020A6001680A681D
:100C300022F001020A603F4E3E4FB215DFF8F4C0C9
:100C4000DFF8F090DFF8ECA0DFF8E8B0DFF8E4E0E0
:100C50000168783F13011502ACF1640CA9F1500949
:100C6000AAF13C0AABF1280BAEF1140E4FF4801838
:100C7000B14227D9B9420ED0614512D049451DD0A5
:100C8000514518D0594518D0714501D1424615E05B
:100C9000294EB14201D1012210E0274E1436B14253
:100CA00001D110220AE0244E2836B14206D0224A51
:100CB0003C32914201D11A4600E02A461E49091FE2
:100CC0000A602BE0B94213D0614517D0494522D0C4
:100CD00051451DD059451DD0714501D142461AE0FC
:100CE000B14202D14FF0807215E0134EB14201D1F2
:100CF000012210E0104E1436B14201D110220AE058
:100D00000D4E2836B14206D00B4A3C32914201D1F9
:100D10001A4600E02A46074980394A60012180F8D6
:100D20002110002180F82010416B01B18847204636
:100D3000BDE8F09F80000240080402402DE9F05F0A
:100D4000C16B0A6801680B68046C4FF0040808FA6C
:100D500004F8844D844E854FDFF814C2DFF81492F6
:100D6000DFF814A2DFF814B2DFF814E218EA020F79
:100D700065D05FEA437862D50A68920603D40A68B0
:100D800022F004020A60DFF8F0814FF4806201680B
:100D900008F1140813011402414524D9A9420DD0C9
:100DA000B1420FD0B9421AD0614515D0494515D08E
:100DB000514501D1120312E0594501D104220EE040
:100DC000714501D140220AE06D4D1435A94206D08B
:100DD0006B4A2832914201D11A4600E02246674907
:100DE000091F0A6029E0A94213D0B14215D0B942C7
:100DF00020D061451BD049451BD0514502D14FF44D
:100E0000800217E0414502D14FF0806212E059455F
:100E100001D104220EE0714501D140220AE0584D73
:100E20001435A94206D0564A2832914201D11A46B9
:100E300000E022464B4908394A60C16A71E04FF030
:100E4000020808FA04F818EA020F70D05FEA837803
:100E50006DD50A68920606D40A6822F00A020A6072
:100E6000012180F82110DFF810814FF40072016831
:100E700008F1140813011402414524D9A9420DD0E8
:100E8000B1420FD0B9421AD0614515D0494515D0AD
:100E9000514501D1120312E0594501D102220EE061
:100EA000714501D120220AE0354D1435A94206D002
:100EB000334A2832914201D11A4600E022462F4996
:100EC000091F0A6029E0A94213D0B14215D0B942E6
:100ED00020D061451BD049451BD0514502D14FF46C
:100EE000001217E0414502D14FF0007212E059455F
:100EF00001D102220EE0714501D120220AE0204DED
:100F00001435A94206D01E4A2832914201D11A4610
:100F100000E02246134908394A60002180F8201079
:100F2000816A00291CD0BDE8F05F0847FFE708256B
:100F3000A540154214D01A0712D50A6822F00E02F5
:100F40000A6090F84020C36B012101FA02F25A6056
:100F5000816380F82110002180F82010016BE0E708
:100F6000BDE8F09F080002401C0002403000024033
:100F700044000240580002406C0002400804024055
:100F80001C04024030B560B11A4B026814219A4229
:100F900009D2194B1344B3FBF1F1890001641749DD
:100FA0000AE0012030BD134B5B421344B3FBF1F167
:100FB000890001640F490839C163022180F82110BA
:100FC000136843F6F0718B43F0E901142143D0E933
:100FD00002452C4321430469214344692143846928
:100FE00021431943116000214163012242770177B7
:100FF000084630BD08040240F8FFFDBF0000024073
:101000002DE9F84FDFF8B891002409F1040A0AF13C
:10101000040B23460F270BF1040EC9E00125A54060
:101020002A40AA427DD1674ED1F804C0ACEB060835
:10103000B44532D014DCBCF1030F3AD009DCBCF16A
:10104000000F2AD0BCF1010F1CD0BCF1020F31D12E
:101050001DE0BCF1110F17D0BCF1120F2AD119E01D
:10106000B8F5881F19D006DCB8F5803F15D0B8F563
:10107000801F1FD111E0B8F5001F0ED0B8F5041F76
:1010800018D10AE0CB6815E0CB681B1D12E0CB68D5
:1010900008330FE0CB680C330CE08B682BB1012BCD
:1010A0004FF0080303D0456104E0042302E005612A
:1010B00000E00023FF2A01D8064601E000F1040603
:1010C0004FEA840501D9A5F12005D6F8008007FA7A
:1010D00005FC28EA0C0803FA05F548EA0508C6F8F5
:1010E00000804D68ED0062D5374DAE6946F00106CF
:1010F000AE61AD6924F0030605F001050095334D9E
:1011000006EB050CDCF80850A607360F07FA06F8C0
:1011100025EA0805DFF8B880404503D14FF0000804
:1011200017E044E0DFF8AC80404502D14FF0010801
:101130000FE0DFF8A480404502D14FF0020808E03C
:10114000DFF89880404502D14FF0030801E04FF0EE
:10115000040808FA06F848EA0508CCF808804D6843
:10116000D9F80060ED034D4601D5164300E09643E3
:101170002E604D68DAF80060AD03554601D5164380
:1011800000E096432E604D68DBF80060ED025D469E
:1011900001D5164300E096432E604D68DEF80060EE
:1011A000AD02754601D5164300E096432E60641CDF
:1011B0000D682A46E5407FF431AFBDE8F88F0000A6
:1011C0000004014000001110001002400000014026
:1011D00000080140000C01400010014000140140D3
:1011E000C2680A4201D041617047016170470AB18B
:1011F000016170470904FBE70148806870470000FF
:101200002400002070B504001BD094F83D00002598
:1012100020B984F83C50204600F0AEF8242084F831
:101220003D002068016821F00101016000F034FBFD
:101230004D4A6168914201D84C4900E04C498842CE
:1012400001D2012070BD4B492368B0FBF1F15E680B
:1012500026F03F060E435E606368934206D94FF462
:10126000967359434FF47A73B1FBF3F12368491C29
:101270001E6A26F03F06314319626168914210D818
:101280004900401EB0FBF1F2521CC2F30B02042ACB
:1012900001D2042022E0B0FBF1F0401CC0F30B00AF
:1012A0001CE0A368F3B301EBC10202EB0116421E7E
:1012B000B2FBF6F2521C42F48042120549D093B3BD
:1012C00001EBC10202EB0111401EB0FBF1F0401C2A
:1012D000C0F30B0040F4804040F400402168CA692C
:1012E0004CF6FF739A431043C861D4E907010843E1
:1012F00021680A6822F0C00210430860D4E90301A3
:1013000001432068826848F2FF339A4311438160A9
:10131000D4E9050108432168CA6822F0FF0210439E
:10132000C86001E00EE016E02068016841F00101AC
:1013300001602564202084F83D00256384F83E5038
:10134000002070BD01EB4106421EB2FBF6F2521CBA
:10135000B3E70120C2E701EB4101401EB0FBF1F011
:10136000401CC0F30B00B7E7A086010080841E007C
:1013700000093D0040420F0010B586B000210091E9
:1013800001910291039100680F4988421AD10F4CD4
:10139000A06940F00800A061A069694600F008005B
:1013A0000490C02000901220019003200390084870
:1013B000FFF726FEE06940F40010E061E06900F408
:1013C0000010049006B010BD005400400010024010
:1013D000000C014070B5040011D021684CF6CC40DF
:1013E0000860216845F255500860D4E90001416069
:1013F0002168A0688860FFF7FFFE054609E001202C
:1014000070BD00BFFFF7F8FE401B302801D9032054
:1014100070BD2068C0680028F4D121684AF6AA206F
:101420000860002070BD00684AF6AA210160002013
:10143000704700000248816802781144816070475B
:1014400024000020074810B5016841F01001016038
:10145000032000F095F8002000F006F800F03EF8B8
:10146000002010BD0020024000B5014687B00022D8
:10147000192000F065F8192000F054F8134881692C
:1014800041F400618161806905A900F40060069063
:10149000684600F0E1F900F00FFA0D490D4AB0FB83
:1014A000F1F10D48491E0260416040F2E73200212F
:1014B000C0E90321816000F086FC10B1012007B073
:1014C00000BD054800F0DEFCF9E700000010024016
:1014D00040420F00002C0140900200200F4808B548
:1014E000816941F001018161816901F0010100918F
:1014F000C16941F08051C161C069002200F0805093
:1015000000900F21901E00F01BF80548416821F063
:10151000E06141F00071416008BD00000010024030
:1015200000000140002809DB00F01F02012191406A
:101530004009800000F1E020C0F800117047000071
:10154000F0B40E4B1B680C46C3F30223C3F107052E
:10155000042D00D90425191D072901D2002300E01C
:10156000DB1E012606FA05F1491E214099409E40E6
:10157000761E16403143F0BC01F07DBB0CED00E05F
:10158000064900F0070208684FF6FF03184040EADA
:101590000220034A10430860704700000CED00E091
:1015A0000000FA052DE9F843044600785B4DC007BA
:1015B0004FF0010951D0E8690026C00008D4E8695D
:1015C00040F08050E861E869012600F0805000900A
:1015D00053480168C90512D40168804641F48071FE
:1015E0000160FFF709FE074605E000BFFFF704FEB4
:1015F000C01B642877D8D8F80000C005F6D5286A43
:1016000010F440701ED0A18801F44071814219D0BD
:10161000286A444920F44070C1F8009000220A6012
:101620002862C0070ED0FFF7E7FD074641F2883871
:1016300005E000BFFFF7E0FDC11B414553D8286A14
:101640008007F7D5286A616820F440700843286253
:101650001EB1E86920F08050E8612078800705D548
:101660006868A16820F4404008436860207840071B
:1016700005D5E86AE16820F400300843E862207884
:10168000000705D5E86A216920F480200843E86254
:10169000E86A800302D4E86A400333D52868C000B2
:1016A00028D42868400105D5E86AA16900F0F00057
:1016B000884225D1E86AA16920F0F0000843E86279
:1016C000E86A616920F470400843E8621649C1F88D
:1016D0007090FFF791FD064608E004E0FFF78CFDEF
:1016E000801B642802D90320BDE8F88328688000A5
:1016F000F4D507E0E86A616900F47040884201D0DF
:101700000120F1E72078C00605D56868E16920F47A
:101710008000084368600020E6E7000000100240F7
:101720000070004040044242000042422DE9F04770
:101730000F46050061D0434E306800F00700B84204
:1017400009D2306820F0070038433060306800F07C
:101750000700B84251D128683B4C810712D5400799
:1017600003D5606840F4E06060602878000703D526
:10177000606840F4605060606068A96820F0F00024
:10178000084360602878C00728D06868012810D016
:101790002168022810D0890700292EDA616821F01B
:1017A000030101436160FFF727FD804641F288395C
:1017B0000DE021688903EFE78901EDE7FFF71CFDE4
:1017C000A0EB0801494502D90320BDE8F087606815
:1017D000696800F00C00B0EB810FEFD1306800F0C9
:1017E0000700B8420BD9306820F00700384330605A
:1017F000306800F00700B84201D00120E5E7287802
:10180000400705D56068E96820F4E060084360603F
:101810002878000706D56068296920F4605040EAFE
:10182000C100606000F058F86168084AC1F3031114
:10183000515CC8400649086006480068FFF714FE7E
:101840000020C2E7002002400010024018370008C4
:1018500030000020280000200F2202600C4A53684C
:1018600003F003034360536803F0F003836053689D
:1018700003F4E063C36052684FF4E06303EAD2020A
:1018800002610448006800F007000860704700002B
:1018900000100240002002400448054900684968E1
:1018A000044AC1F30221515CC84070473000002057
:1018B00000100240283700080448054900684968BC
:1018C000044AC1F3C221515CC84070473000002077
:1018D0000010024028370008F0B524A289B00FCAD2
:1018E00004AC84E80F0025A10FC98DE80F0027483C
:1018F000416801F00C02042A04D0082A04D02448CC
:1019000009B0F0BD2348FBE704AAC1F38343C90330
:10191000D45C28D5C16AC26A01F00F011DF801101C
:10192000D20316D5C26AC06AC2F30312521CA2FBCC
:101930000123C0F30320801CA0FB0415154F0026D3
:10194000A1FB070C05FB07C501FB0651FEF7BAFC1E
:1019500003E010486043B0FBF1F09DF81D10A14278
:10196000CED14008CCE70C486043C9E7000004052D
:101970000607080900000000000D00000102030432
:1019800005060708090A0B0C0D0E0F100010024087
:1019900000127A0040787D0100093D002DE9F84FE2
:1019A000040070D02078F14DC00749D06868C0F3BA
:1019B0008100012807D06868C0F38100022809D19E
:1019C0006868C00306D52868800339D5A068002858
:1019D000E7D035E0A068B0F5803F0BD010B1B0F58E
:1019E000A02F11D0286820F480302860286820F4C7
:1019F000802002E0286840F480302860A06890B120
:101A0000FFF7FAFB06460AE0286840F480202860C9
:101A1000F0E700BFFFF7F0FB801B642876D828684A
:101A20008003F7D50CE0FFF7E7FB064605E000BFB3
:101A3000FFF7E2FB801B6428F0D828688003F7D406
:101A40002078CB4E80074FF001094FF000073AD5C0
:101A5000686810F00C0F07D06868C0F38100022896
:101A600009D16868C00306D42868800715D5606965
:101A7000012808D111E06069B8B1C6F80090FFF7FD
:101A8000BBFB804606E042E1FFF7B6FBA0EB080097
:101A90000228C3D828688007F6D52868A16920F0F5
:101AA000F80040EAC10028600DE03760FFF7A4FBB2
:101AB000804605E0FFF7A0FBA0EB08000228ADD8A8
:101AC00028688007F6D4207800072ED5A948E16958
:101AD000E9B1C0F80090FFF78FFB804606E000BF39
:101AE000FFF78AFBA0EB0800022897D8686A8007F6
:101AF000F6D5A1484FF4FA510068B0FBF1F0009020
:101B000000BF0098411E0091FAD20EE0B0E00760DD
:101B1000FFF772FB804605E0FFF76EFBA0EB0800C5
:101B2000022889D8686A8007F6D42078400763D5F0
:101B3000E8694FF00008C00009D4E86940F080501F
:101B4000E861E8694FF0010800F0805000908B4890
:101B50000168C90512D40168834641F480710160AF
:101B6000FFF74AFB824605E0FFF746FBA0EB0A00C1
:101B700064287DD8DBF80000C005F5D52069012870
:101B80000AD008B1052813D0286A20F00100286285
:101B9000286A20F0040002E0286A40F00100286270
:101BA000206941F2883B98B1FFF726FB82460BE0A3
:101BB000286A40F004002862EEE700BFFFF71CFB34
:101BC000A0EB0A01594553D8286A8007F6D50CE0E6
:101BD000FFF712FB824605E0FFF70EFBA0EB0A01C0
:101BE000594545D8286A8007F6D4B8F1000F03D0CC
:101BF000E86920F08050E861E06AD0B36968C90301
:101C000007D56968C1F38101022902D1E96AC903D4
:101C10007DD4022808D0E86A20F48030E862B766F4
:101C2000FFF7EAFA80463BE02868C00005D5E86A7D
:101C3000616B00F0F000884269D1B766FFF7DCFA0B
:101C4000804605E0FFF7D8FAA0EB0800642874D8B6
:101C500028680001F6D4E86A616B20F0F0000843C0
:101C6000E862E86A216B20F470600843E86201E0F2
:101C700063E018E0C6F86890FFF7BEFA804605E01A
:101C8000FFF7BAFAA0EB0800642856D828680001CC
:101C9000F6D508E0FFF7B0FAA0EB080064284CD8AE
:101CA00028680001F6D4206A90B36968C1F3810105
:101CB000022949D00228376603D0FFF79DFA04466F
:101CC0003EE0FFF799FA074605E000BFFFF794FAF8
:101CD000C01B022831D828688001F7D4606AB0F5AB
:101CE000803F09D1E86A61680843E862E86AE16810
:101CF00020F00F000843E862D4E90901084369684D
:101D000021F4741108436860C6F8609001E028E08F
:101D100029E0FFF771FA044605E000BFFFF76CFA0F
:101D2000001B022809D828688001F7D51BE000BFF6
:101D3000FFF762FA001B022802D90320BDE8F88FE2
:101D400028688001F4D40EE00128F7D06868626A40
:101D500000F48031914204D1A16A00F470108842ED
:101D600001D00120EAE70020E8E70000001002406F
:101D700000004242800442423000002000700040D7
:101D80007047704770B590F83C20012A19D00124A3
:101D900000F83C4F0222427050F83C3C5A689D6863
:101DA00022F070060A684968324325F0800529430D
:101DB0005A6050F83C2C9160447000210170084634
:101DC00070BD022070BD10B5040003D094F83D0032
:101DD00010B107E0012010BD002084F83C0020462F
:101DE00000F00CF8022084F83D00211D206800F06E
:101DF000D3FD012084F83D00002010BD08B5016826
:101E00001D48B1F1804F11D01C4A91421DD1C169CA
:101E100041F00201C161C069002200F0020000909F
:101E200005211D20FFF78CFB1D201FE0C16941F03B
:101E30000101C161C069002200F00100009005218C
:101E40001C20FFF77DFB1C2010E00D4A914211D1B0
:101E5000C16941F00401C161C069002200F00400C1
:101E6000009005211E20FFF76BFB1E20BDE80840F7
:101E7000FFF758BB08BD00000010024000040040FE
:101E8000000800400168CA6842F00102CA600068A8
:101E9000816801F00701062903D0016841F00101C2
:101EA00001600020704770B5044690F83C0001289E
:101EB00017D0012584F83C50022084F83D002068AA
:101EC000826822F0770222F47F42826008685028FC
:101ED00030D00DDC20284DD005DC98B310283BD144
:101EE00048E0022070BD302844D0402834D139E089
:101EF000602828D0702806D0B0F5805F2CD0B0F5CF
:101F0000005F29D10AE0CB68D1E90121206800F007
:101F100081FD2068816841F0770109E0CB68D1E953
:101F20000121206800F076FD2068816841F480413D
:101F3000816011E0CA684968206800F07DFD502189
:101F4000206807E016E0CA684968206800F085FD4F
:101F50006021206800F068FD84F83D50002084F87E
:101F60003C0070BDCA684968206800F065FD4021EA
:101F70002068EFE7226801461046EBE7704770B52E
:101F80000446006801694FF00005C943890715D46C
:101F9000C168C943890711D4E91E01610120207776
:101FA000206880698007204602D0FFF7E7FF04E041
:101FB00000F098F8204600F096F82577206801692F
:101FC000C943490717D4C168C943490713D46FF0FF
:101FD00004010161022020772068806910F4407FAD
:101FE000204602D0FFF7CAFF04E000F07BF820464D
:101FF00000F079F8257720680169C943090716D4EC
:10200000C168C943090712D46FF0080101610420B7
:1020100020772068C0698007204602D0FFF7AEFF16
:1020200004E000F05FF8204600F05DF825772068B6
:102030000169C943C90617D4C168C943C90613D485
:102040006FF010010161082020772068C06910F44A
:10205000407F204602D0FFF791FF04E000F042F8F5
:10206000204600F040F8257720680169C943C90778
:1020700008D1C168C943C90704D1891E016120463E
:1020800000F032F820680169C943090609D4C16823
:10209000C943090605D46FF0800101612046FFF7AE
:1020A0006FFE20680169C943490609D4C168C94364
:1020B000490605D46FF040010161204600F01EF88A
:1020C00020680169C94389060BD4C168C9438906E0
:1020D00007D46FF0200101612046BDE87040FFF792
:1020E00050BE70BD7047704700680349884201D1F7
:1020F000FFF7A0B970470000002C014070477047FF
:1021000070B5026804461068D168536910F00F0F6B
:1021100050D003F0010501F4907635435DD0C2073D
:1021200005D0CA0503D5E26B42F00102E263420723
:1021300005D5DA0703D0E26B42F00202E2638207C0
:1021400005D5DA0703D0E26B42F00402E26302072E
:1021500005D5DA0703D0E26B42F00802E263E26BD6
:10216000002A33D0800604D5880602D5204600F028
:102170009CFC20684069E16BC0F38010090700D423
:1021800028B3204600F083FC2068416949061AD52F
:10219000416921F040014161606BA0B11B4941637D
:1021A000606BFEF733FD002810D0606B416BBDE81B
:1021B00070400847830610D58B060ED52046BDE833
:1021C000704000F072BC2046FFF799FF70BD2046BA
:1021D000FFF795FF0020E06370BD030606D50B06F0
:1021E00004D52046BDE8704000F006BD4006F3D59A
:1021F0004806F1D5D168204621F04001D160202168
:1022000084F8391000F077F870BD00007F2A0008CC
:1022100070B5040004D094F83900002510B106E030
:10222000012070BD84F83850204600F023F82420A7
:1022300084F839002068C16821F40051C16020464B
:1022400000F07EFC2068016921F490410161206862
:10225000416921F02A0141612068C16841F40051BF
:10226000C160E563202084F8390084F83A0000203A
:1022700070BD000070B586B00024009401940294F3
:1022800003940068184988422BD11848816941F4A9
:1022900080418161816901F480410491816941F04B
:1022A000040181618069022500F0040004904FF46C
:1022B0000070CDE9000503200D4E039069463046BD
:1022C000FEF79EFE68028DE8310069463046FEF753
:1022D00097FE002205212520FFF732F92520FFF780
:1022E00021F906B070BD0000003801400010024026
:1022F0000008014070477047FEE74FF47A742046AB
:1023000000F0ECFCFBE700003EB5002132480091F4
:102310000191304A02910260921582600124047397
:10232000017507254FF460220561C2614160FEF727
:10233000AFF908B1FEF71BF90920CDE90004052427
:10234000694625480294FEF725F908B1FEF70FF912
:102350000A2000900220019069461F48FEF71AF9F2
:1023600008B1FEF704F90B200090032001906946A4
:102370001948FEF70FF908B1FEF7F9F80C200090A4
:102380000420019069461448FEF704F908B1FEF7ED
:10239000EEF80D20CDE9000469460F48FEF7FAF883
:1023A00008B1FEF7E4F80E2000900620019069467F
:1023B0000948FEF7EFF808B1FEF7D9F80F20CDE98C
:1023C000000569460448FEF7E5F8002801D0FEF74D
:1023D000CEF83EBD0024014094000020104810B506
:1023E0000E4901600921416000214FF4C022816043
:1023F000C0E903124FF4E002426101764176817632
:102400000122C27601774177FEF729FB002803D02D
:10241000BDE81040FEF7ABB810BD000000640040FE
:1024200008010020094808B5416941F001014161F6
:102430004069002200F00100009005210B20FFF709
:102440007FF8BDE808400B20FFF76CB80010024091
:1024500010B5AEB0142232496846FDF7AAFF00213C
:10246000684600F047FC2F4C2D491422206014319F
:1024700005A8FDF79EFF002105A800F03BFC2849B8
:102480006060142228310AA8FDF793FF00210AA8F2
:1024900000F030FC2249A06014223C310FA8FDF767
:1024A00088FF00210FA800F025FC1D49E0601422E0
:1024B000503114A8FDF77DFF002114A800F01AFC8C
:1024C000174920611422643119A8FDF772FF002119
:1024D00019A800F00FFC12496061142278311EA87F
:1024E000FDF767FF00211EA800F004FC0C49A06165
:1024F00014228C3123A8FDF75CFF002123A800F0F3
:10250000F9FB0749E0611422A03128A8FDF751FF2B
:10251000002128A800F0EEFB20622EB010BD0000C4
:1025200064360008000000202DE9F04786B0002442
:1025300047480094019402940394816941F040015A
:102540008161816901F040010491816941F01001CC
:102550008161816901F010010491816941F00401F8
:102560008161816901F004010491816941F00801F0
:102570008161816901F008010491816941F02001C4
:1025800081618069DFF8CC8000F020004FF40055B5
:102590000490002229464046FEF729FEDFF8B89055
:1025A0006F10002239464846FEF721FEDFF8ACA046
:1025B00000227F215046FEF71AFE4FF6FF70CDE94C
:1025C0000004694626480294FEF71AFD6800CDE92A
:1025D0000004694648460294FEF712FDFF20CDE94B
:1025E000000469461F480294FEF70AFD48F6017090
:1025F000CDE90004694640460294FEF701FD0095CE
:10260000032601250396CDE9015469464046FEF7AD
:10261000F7FC4FF47C50CDE9000469465046029423
:10262000FEF7EEFC00970396CDE901546946484653
:10263000FEF7E6FC7F20CDE900050220CDE9020689
:1026400069465046FEF7DCFC06B0BDE8F0870000A6
:1026500000100240000C0140001001400014014035
:1026600000180140000801400D4810B50B490160F9
:102670000C49416000214FF480428160C0E903129F
:1026800041618161C1610162FEF7BCFD002803D098
:10269000BDE81040FDF76BBF10BD000000540040C6
:1026A00030010020A0860100094810B507490160EB
:1026B000042141604FF4FA718160FEF78BFE00281F
:1026C00003D0BDE81040FDF752BF10BD0030004000
:1026D0008401002010B586B00024164800940194AF
:1026E0000294039404944FF08041059401604721C3
:1026F000C0E901143121C0E9031480218161FFF791
:1027000062FB08B1FDF733FF4FF48050009069463B
:102710000848FFF7C8FB08B1FDF729FF049404A996
:1027200004480594FFF72EFB002801D0FDF71FFF9A
:1027300006B010BD9001002010B586B000241748E7
:102740000094019402940394049413490594016045
:102750004721C0E901140921C0E9031480218161E6
:10276000FFF731FB08B1FDF702FF4FF480500090F6
:1027700069460A48FFF797FB08B1FDF7F8FE049495
:1027800004A906480594FFF7FDFA002801D0FDF7DB
:10279000EEFE06B010BD000000040040D001002095
:1027A00010B586B000241748009401940294039455
:1027B00004941349059401604721C0E901143121B3
:1027C000C0E9031480218161FFF7FDFA08B1FDF72C
:1027D000CEFE4FF48050009069460A48FFF763FB35
:1027E00008B1FDF7C4FE049404A906480594FFF758
:1027F000C9FA002801D0FDF7BAFE06B010BD0000EE
:1028000000080040100200200C4810B50A49016081
:102810004FF4E1314160002181600C22C160C0E9C8
:1028200004128161C161FFF7F3FC002803D0BDE809
:102830001040FDF79CBE10BD003801405002002042
:10284000FEE770474FF47A74204600F047FAFBE742
:102850004FF47A74204600F041FAFBE74FF47A74A3
:10286000204600F03BFAFBE710B5502080F31188BA
:10287000BFF34F8FBFF36F8F00F02EFE18B10449E6
:102880004FF080500860002080F3118810BD0000D8
:1028900004ED00E030B59BB038216846FDF7BBFD84
:1028A00014210EA8FDF7B7FD202113A8FDF7B3FDF5
:1028B0000920009001254FF4803004210795CDE9CF
:1028C00002010224CDE90840019005954FF4E01083
:1028D000CDE90A044FF4C0600C9040200D9068468A
:1028E000FFF75CF80F20CDE90E0400206102CDE96E
:1028F0001001129002210EA8FEF718FFA0031590F8
:10290000139413A8FEF74EFE014805671BB030BDB7
:10291000000042421048016841F001010160416835
:102920000E4A1140416001680D4A11400160016882
:1029300021F480210160416821F4FE0141600168B9
:1029400021F0A05101604FF47F0181600021C1623C
:102950000449C00308607047001002400000FFF007
:10296000FFFFF6FE08ED00E00148FFF708BB00009E
:10297000900200200148FFF702BB000090010020F8
:102980000148FFF7FCBA0000D00100200148FFF722
:10299000F6BA000010020020F0B50268194B1A4C7C
:1029A0001A4D1B4E4FF08047984207D0B84205D0D1
:1029B000A04203D0A84201D0B04204D122F0700C52
:1029C0004A6842EA0C02984207D0B84205D0A042B9
:1029D00003D0A84201D0B04203D122F44074CA68A7
:1029E00022434C6922F08002224302608A68C2625C
:1029F0000A688262984201D109690163012141613B
:102A0000F0BD0000002C0140000400400008004020
:102A1000000C004010B5846842EA032224F47F448D
:102A20000A432243826010BD826822F070020A438A
:102A300042F007018160704710B5036A046A24F010
:102A400001040462846924F0F00444EA021423F0CF
:102A50000A020A438461026210BD10B5036A23F0C2
:102A6000100303628369046A23F4704343EA023269
:102A700024F0A00343EA01118261016210BD10B588
:102A8000406A0021C185C184FFF739FB10BD016890
:102A9000CA6822F49072CA6001684A6922F0010291
:102AA0004A61202180F83A10704710B590F83A102A
:102AB000222901D0022010BD8168B1F5805F11D0BC
:102AC0000169002901681FD0496801F07F03816A0C
:102AD0004A1C82620B70C18D491E0904090CC18514
:102AE00018D02BE00269816A002A0268526805D07A
:102AF000D2B20A80816A491C8162ECE7C2F3080203
:102B00000A80816A891CF7E74A68816A4B1C8362E4
:102B10000A70E0E70168CA6822F02002CA60016812
:102B2000CA6822F48072CA6001684A6922F0010210
:102B30004A61202180F83A10FFF7DCFB002010BD2D
:102B40002DE9F041044600680169E26821F4405132
:102B5000114301612169A068084361690843216844
:102B6000CA6841F20C639A430243CA602068416913
:102B7000A26921F44071114341611E492068642516
:102B80003226884202D1FEF797FE01E0FEF784FE6E
:102B900000EBC00101EB001160686FF018078000C6
:102BA000B1FBF0F2B2FBF5F2B1FBF0F37A4303EBC9
:102BB0008202B1FBF0F306EB0212B2FBF5F2B3FBBB
:102BC000F5F302F0F00202EB0312B1FBF0F3B1FBFC
:102BD000F0F0B0FBF5F0784303EB800006EB00105B
:102BE000B0FBF5F0216800F00F0010448860BDE8EC
:102BF000F08100000038014090F83910212901D0FF
:102C0000022070478168B1F5805F016A0BD04A1CD1
:102C10000262026809785160C18C491E0904090CDE
:102C2000C1840ED017E009880268C1F30801516021
:102C300001690029016A02D0491C0162ECE7891C84
:102C4000FBE70168CA6822F08002CA600068C168B8
:102C500041F04001C1600020704700000148FFF7CB
:102C60004FBA000050020020FEE74FF47A7420466D
:102C700000F034F8FBE70907090E002804DB00F137
:102C8000E02080F80014704700F00F0000F1E02011
:102C900080F8141D7047FEF7D5FBFFF7FBFDFFF72B
:102CA00043FCFFF7BFFBFFF799FBFFF72DFBFFF797
:102CB00077FDFFF7A9FDFFF7F7FCFFF7D5FCFFF75E
:102CC00009FDFFF739FDFFF7C3FB00F00EF8FEE743
:102CD00001460020842900D0C81C704710B500B9F7
:102CE000012000F0E9FA002010BD10B500F00AFB49
:102CF000002010BD3EB504460D46B0F90800FFF7B0
:102D0000E7FF02A9CDE90001208A2B4682B2D4E96F
:102D1000001000F0B5FB012801D000203EBD029854
:102D20003EBD00002DE9F041184C0F46054666698E
:102D30002068001D00F006FA38B9206890F82C10C1
:102D400001208840A1698143A161681C07D137B186
:102D50002168BDE8F0410E48091D00F02CBA20683A
:102D60003544B5424560216805D2A068BDE8F04110
:102D7000091D00F008BA6068091D00F004FA206B14
:102D8000854200D22563BDE8F081000034000020B8
:102D9000AC0300202DE9F041054600F019FA2E4C55
:102DA0002069401C206120682C4F10B1E06940B3BD
:102DB0002DE025602069012829D1002606EB860038
:102DC00007EB800000F0D1F9761C072EF6D32348DC
:102DD0008C3000F0CAF92148A03000F0C6F91F4835
:102DE000B43000F0C2F91D48C83000F0BEF91B48ED
:102DF000DC3000F0BAF919488C3060601430A06003
:102E000005E02068E96AC06A884200D82560E06A67
:102E1000401CE062E96A0120A26988401043A06179
:102E200001EB810007EB8000291D00F0C4F900F0E0
:102E3000EFF9E06900280CD02068E96AC06A88428E
:102E400007D207494FF080500860BFF34F8FBFF3A0
:102E50006F8FBDE8F081000034000020D002002018
:102E600004ED00E010B50446006B00F0E5F92046E3
:102E7000BDE8104000F0E0B910484FF4005142079F
:102E800006D0C01D0D4920F00700411AC1F50051C0
:102E90000B4A00230144C2E900030839103A21F02B
:102EA000070111604B600B600B1AC0E900139360BF
:102EB0004FF000405360D06070470000C003002016
:102EC00080000020144E154CA6F1C8074FF0805822
:102ED000DFF84C9012E000BF00F07AF9F068C568A6
:102EE000281D00F02FF92069401E2061E068401E77
:102EF000E06000F08DF92846FFF7B4FFE068002895
:102F0000EAD138680128F9D9C9F80080BFF34F8F9A
:102F1000BFF36F8FF2E70000980300203400002019
:102F200004ED00E02DE9F0479A46DDE90984814689
:102F30006FF00303206B03EB82021044089D20F026
:102F40000706700707D0502080F31188BFF34F8F1A
:102F5000BFF36F8FFEE723180A5C83F834200A5C06
:102F600012B1401C1028F6D3002784F84370072DB7
:102F700000D30625E562C4E91157201D00F000F9D1
:102F800004F1180000F0FCF82461C5F10700646248
:102F9000A061E76484F8507052464946304600F01C
:102FA000BFF82060B8F1000F01D0C8F80040BDE8BC
:102FB000F087000030B5114900E011460A688242EE
:102FC000FBD34B685C18844203D1406818444860C6
:102FD000084643681C18944209D1084C103C2468E8
:102FE000A24209D052681A4442600A68126802601C
:102FF000814200D0086030BD0460F9E78000002005
:1030000006484168096829B14168C968C9684968C2
:10301000016370474FF0FF31FAE7000034000020F1
:1030200008484068401C4FF0500080F3118804D0DD
:10303000BFF34F8FBFF36F8FFEE7BFF34F8FBFF329
:103040006F8FFEE7880000202DE9F041054600273C
:1030500000F08CF9314E306808B9FFF70DFFF068C9
:1030600005424BD1C5B3083568070ED005F00700FF
:10307000C0F108000544680707D0502080F311888C
:10308000BFF34F8FBFF36F8FFEE72DB3706885429C
:1030900034D82248103001460C6801E020460C4626
:1030A0006168A94202D221680029F7D131688C42B7
:1030B00024D007682168016060680837411B102927
:1030C0000FD96019420708D0502080F31188BFF350
:1030D0004F8FBFF36F8FFEE710E041606560FFF731
:1030E00069FF61687068401A7060B268904200D2EF
:1030F000B060F06801430020C4E9000100F050FA1C
:10310000780707D0502080F31188BFF34F8FBFF3AB
:103110006F8FFEE73846BDE8F081000070000020A8
:1031200010B5031F4FF080741C601B1F21F00101BC
:103130001960191F024B0B60143940380A6010BD2A
:1031400021300008D0E9013201699A60D0E90123F9
:103150005A604A68824201D182684A600022026154
:103160000868401E08600868704700F108014FF0C9
:10317000FF32C0E90112C1600161002101607047A6
:1031800000210161704730B50B685A1C02D000F174
:10319000080202E0026904E02246546825689D4264
:1031A000FAD953684B6099608A6051600861016880
:1031B000491C016030BD42684A6093688B60936827
:1031C0005960916008610168491C01607047000006
:1031D000502080F31188BFF34F8FBFF36F8F0A49E0
:1031E0004868401C486001280CD10848006810F06D
:1031F000FF0F07D0502080F31188BFF34F8FBFF32C
:103200006F8FFEE7704700008800002004ED00E0AB
:103210000849486828B1401E486001D180F31188F0
:103220007047502080F31188BFF34F8FBFF36F8F2B
:10323000FEE700008800002070B5002827D0144D5C
:10324000A0F108046168E868014207D1502080F3CA
:103250001188BFF34F8FBFF36F8FFEE722683AB13B
:10326000502080F31188BFF34F8FBFF36F8FFEE7BD
:103270008143616000F07AF86068696808446860BA
:103280002046FFF797FEBDE8704000F089B970BD99
:10329000700000204FF0E0200021016181610549AC
:1032A0004FF47A720968B1FBF2F1491E41610721BE
:1032B000016170473000002010B5020014D00F48A3
:1032C000806B38B1502080F31188BFF34F8FBFF36C
:1032D0006F8FFEE700F04AF800211046FFF722FD4D
:1032E00000F05EF9002807D105494FF080500860D2
:1032F000BFF34F8FBFF36F8F10BD0000340000206D
:1033000004ED00E01CB515480024CDE9004023463B
:10331000402213A1144800F0B3F8012809D0401C42
:103320001AD1502080F31188BFF34F8FBFF36F8FF6
:10333000FEE7502080F31188BFF34F8FBFF36F8FEC
:1033400006484FF0FF31343801630121C161446107
:10335000BDE81C4000F040B81CBD00006800002023
:1033600049444C4500000000C52E00080248816B0E
:10337000491C816370470000340000201448816BB1
:1033800011B1012141627047002141628169B1FAA6
:1033900081F1C1F11F0101EB81020E4951F8223088
:1033A0006BB101EB820101F108034A6852684A607F
:1033B0009A4201D152684A60D1680160704750203A
:1033C00080F31188BFF34F8FBFF36F8FFEE70000CC
:1033D00034000020D00200201CB526490878019056
:1033E000FF20087008788DF800009DF800009DF817
:1033F000002000F0F000904207D0502080F31188A8
:10340000BFF34F8FBFF36F8FFEE79DF800001A4B9D
:1034100000F0500018700720986005E09DF800202B
:1034200052008DF80020401E9DF800201206F5D4B1
:103430009860032807D0502080F31188BFF34F8F86
:10344000BFF36F8FFEE74FF44070986001980870EB
:103450000A48016841F470010160016841F070415F
:103460000160FFF717FF00205860FCF7D1FE002035
:103470001CBD000000E400E08800002020ED00E01A
:103480002DE9FF5F8346DDE90E87994616468A4699
:103490009000FFF7D9FD05001AD05420FFF7D4FDA6
:1034A000040012D025630021CDE90241CDE9008757
:1034B0004B46324651465846FFF734FD2046FFF74B
:1034C00069FC012004B0BDE8F09F2846FFF7B4FE78
:1034D0004FF0FF30F6E700002DE9F0412E4C0027B9
:1034E000A06B40B1206A401C2062606A00B10127D5
:1034F0003846BDE8F0816669761C666113D1606864
:10350000006838B1502080F31188BFF34F8FBFF3AC
:103510006F8FFEE76068A1686160A060A06A401CD0
:10352000A062FFF76DFD206BDFF87080864209D343
:103530006068006880B16068C068C5686868864275
:103540000DD220632068C06A00EB800158F821008A
:103550000128CAD90127C8E74FF0FF30F1E7281D3D
:10356000FFF7F0FDA86A18B105F11800FFF7EAFDB2
:10357000E86A0121A26981401143A16100EB800149
:1035800008EB8100291DFFF716FEE86A2168C96A69
:103590008842CDD30127CBE734000020D0020020A1
:1035A0002DE9F0472C4D00242746A86B38B1FFF7D2
:1035B0000FFEA86B401EA863A86B40B146E05020E8
:1035C00080F31188BFF34F8FBFF36F8FFEE7296938
:1035D000224E0120D1B3A6F1B40980463068E8B18B
:1035E000F068C46804F11800FFF7ACFD201DFFF778
:1035F000A9FDE06AAA6908FA00F11143A96100EB8C
:10360000800109EB8100211DFFF7D5FDE06A2968E3
:10361000C96A8842E2D3C5F82480DFE70CB1FFF71E
:10362000EFFC2C6A44B14646FFF756FF00B16E62CC
:10363000641EF9D100202862686A38B10849012760
:1036400038070860BFF34F8FBFF36F8FFFF7E0FDC0
:103650003846BDE8F08700003400002084030020D5
:1036600004ED00E0883700085D2800080000000035
:103670000000000040000000603700084905000815
:103680000300000000000000800000006C3700080C
:10369000710500080000000000000000400000006C
:1036A000A4370008610500080300000000000000C6
:1036B00080000000943700082D050008030000007A
:1036C0000000000080000000503700086B2C00084C
:1036D00003000000000000008000000030370008F8
:1036E000FB22000803000000000000004000000072
:1036F00040370008452800080300000000000000D3
:10370000400000007C37000851280008000000003D
:103710000000000040000000000000000000000069
:103720000102030406070809000000000102030467
:103730005461736B5F4C6566744865616443000057
:103740005461736B5F5269676874486561644300D4
:103750005461636B5F57616C6B53706565644300C4
:103760005461736B5F43414E000000005461736B02
:103770005F46656564446F67000000005461736BC9
:103780005F536D6F6F74680064656661756C745427
:1037900061736B005461736B5F4172656143616C6F
:1037A000000000005461736B5F44617461436F6C8F
:1037B00000000000D4370008000000209400000042
:1037C0008C01000868380008940000208C29000053
:1037D000A801000800000000000000000000000038
:1037E00000000000000000000000000000000000D9
:1037F00000000000000000000100000010000000B8
:10380000000000000024F4000000000000000000A0
:1038100000000000000000000000000000000000A8
:103820000000000000000000000000000000000098
:103830000000000000000000000000000000000088
:103840000000000000000000000000000000000078
:103850000000000000000000000000000000000068
:08386000AAAAAAAA00000000B8
:04000005080001519D
:00000001FF
